{
  "abi": [
    {
      "inputs": [
        {
          "internalType": "string",
          "name": "name",
          "type": "string"
        },
        {
          "internalType": "address[]",
          "name": "signers",
          "type": "address[]"
        },
        {
          "internalType": "uint256",
          "name": "_quorum",
          "type": "uint256"
        }
      ],
      "stateMutability": "payable",
      "type": "constructor"
    },
    {
      "inputs": [],
      "name": "ExecutionFailed",
      "type": "error"
    },
    {
      "inputs": [],
      "name": "InvalidSignatures",
      "type": "error"
    },
    {
      "anonymous": false,
      "inputs": [
        {
          "indexed": false,
          "internalType": "address",
          "name": "target",
          "type": "address"
        },
        {
          "indexed": false,
          "internalType": "uint256",
          "name": "value",
          "type": "uint256"
        },
        {
          "indexed": false,
          "internalType": "bytes",
          "name": "payload",
          "type": "bytes"
        }
      ],
      "name": "Executed",
      "type": "event"
    },
    {
      "anonymous": false,
      "inputs": [
        {
          "indexed": false,
          "internalType": "uint256",
          "name": "newQuorum",
          "type": "uint256"
        }
      ],
      "name": "QuorumUpdated",
      "type": "event"
    },
    {
      "anonymous": false,
      "inputs": [
        {
          "indexed": true,
          "internalType": "address",
          "name": "signer",
          "type": "address"
        },
        {
          "indexed": false,
          "internalType": "bool",
          "name": "shouldTrust",
          "type": "bool"
        }
      ],
      "name": "SignerUpdated",
      "type": "event"
    },
    {
      "inputs": [],
      "name": "EXECUTE_HASH",
      "outputs": [
        {
          "internalType": "bytes32",
          "name": "",
          "type": "bytes32"
        }
      ],
      "stateMutability": "view",
      "type": "function"
    },
    {
      "inputs": [],
      "name": "QUORUM_HASH",
      "outputs": [
        {
          "internalType": "bytes32",
          "name": "",
          "type": "bytes32"
        }
      ],
      "stateMutability": "view",
      "type": "function"
    },
    {
      "inputs": [],
      "name": "SIGNER_HASH",
      "outputs": [
        {
          "internalType": "bytes32",
          "name": "",
          "type": "bytes32"
        }
      ],
      "stateMutability": "view",
      "type": "function"
    },
    {
      "inputs": [],
      "name": "domainSeparator",
      "outputs": [
        {
          "internalType": "bytes32",
          "name": "",
          "type": "bytes32"
        }
      ],
      "stateMutability": "view",
      "type": "function"
    },
    {
      "inputs": [
        {
          "internalType": "address",
          "name": "target",
          "type": "address"
        },
        {
          "internalType": "uint256",
          "name": "value",
          "type": "uint256"
        },
        {
          "internalType": "bytes",
          "name": "payload",
          "type": "bytes"
        },
        {
          "components": [
            {
              "internalType": "uint8",
              "name": "v",
              "type": "uint8"
            },
            {
              "internalType": "bytes32",
              "name": "r",
              "type": "bytes32"
            },
            {
              "internalType": "bytes32",
              "name": "s",
              "type": "bytes32"
            }
          ],
          "internalType": "struct LilGnosis.Signature[]",
          "name": "sigs",
          "type": "tuple[]"
        }
      ],
      "name": "execute",
      "outputs": [],
      "stateMutability": "payable",
      "type": "function"
    },
    {
      "inputs": [
        {
          "internalType": "address",
          "name": "",
          "type": "address"
        }
      ],
      "name": "isSigner",
      "outputs": [
        {
          "internalType": "bool",
          "name": "",
          "type": "bool"
        }
      ],
      "stateMutability": "view",
      "type": "function"
    },
    {
      "inputs": [],
      "name": "nonce",
      "outputs": [
        {
          "internalType": "uint256",
          "name": "",
          "type": "uint256"
        }
      ],
      "stateMutability": "view",
      "type": "function"
    },
    {
      "inputs": [],
      "name": "quorum",
      "outputs": [
        {
          "internalType": "uint256",
          "name": "",
          "type": "uint256"
        }
      ],
      "stateMutability": "view",
      "type": "function"
    },
    {
      "inputs": [
        {
          "internalType": "uint256",
          "name": "_quorum",
          "type": "uint256"
        },
        {
          "components": [
            {
              "internalType": "uint8",
              "name": "v",
              "type": "uint8"
            },
            {
              "internalType": "bytes32",
              "name": "r",
              "type": "bytes32"
            },
            {
              "internalType": "bytes32",
              "name": "s",
              "type": "bytes32"
            }
          ],
          "internalType": "struct LilGnosis.Signature[]",
          "name": "sigs",
          "type": "tuple[]"
        }
      ],
      "name": "setQuorum",
      "outputs": [],
      "stateMutability": "payable",
      "type": "function"
    },
    {
      "inputs": [
        {
          "internalType": "address",
          "name": "signer",
          "type": "address"
        },
        {
          "internalType": "bool",
          "name": "shouldTrust",
          "type": "bool"
        },
        {
          "components": [
            {
              "internalType": "uint8",
              "name": "v",
              "type": "uint8"
            },
            {
              "internalType": "bytes32",
              "name": "r",
              "type": "bytes32"
            },
            {
              "internalType": "bytes32",
              "name": "s",
              "type": "bytes32"
            }
          ],
          "internalType": "struct LilGnosis.Signature[]",
          "name": "sigs",
          "type": "tuple[]"
        }
      ],
      "name": "setSigner",
      "outputs": [],
      "stateMutability": "payable",
      "type": "function"
    },
    {
      "stateMutability": "payable",
      "type": "receive"
    }
  ],
  "bytecode": {
    "object": "0x60a060405260016000556040516200103c3803806200103c8339810160408190526200002b916200022a565b60005b82518110156200008e576001600260008584815181106200005357620000536200030f565b6020908102919091018101516001600160a01b03168252810191909152604001600020805460ff19169115159190911790556001016200002e565b5060018181558351602080860191909120604080518082018252938452603160f81b9383019390935282517f8b73c3c69bb8fe3d512ecc4cf759cc79239f7b179b0ffacaa9a75d522b39400f92810192909252918101919091527fc89efdaa54c0f20c7adf612882df0950f5a951637e0307cdcb4c672f298b8bc660608201524660808201523060a082015260c00160408051601f1981840301815291905280516020909101206080525062000325915050565b634e487b7160e01b600052604160045260246000fd5b604051601f8201601f191681016001600160401b038111828210171562000183576200018362000142565b604052919050565b600082601f8301126200019d57600080fd5b815160206001600160401b03821115620001bb57620001bb62000142565b8160051b620001cc82820162000158565b9283528481018201928281019087851115620001e757600080fd5b83870192505b848310156200021f5782516001600160a01b03811681146200020f5760008081fd5b82529183019190830190620001ed565b979650505050505050565b6000806000606084860312156200024057600080fd5b83516001600160401b03808211156200025857600080fd5b818601915086601f8301126200026d57600080fd5b81518181111562000282576200028262000142565b602062000298601f8301601f1916820162000158565b8281528982848701011115620002ad57600080fd5b60005b83811015620002cd578581018301518282018401528201620002b0565b506000928101820192909252870151909550915080821115620002ef57600080fd5b50620002fe868287016200018b565b925050604084015190509250925092565b634e487b7160e01b600052603260045260246000fd5b608051610ce662000356600039600081816101d50152818161022f015281816104ad01526106dc0152610ce66000f3fe6080604052600436106100955760003560e01c806364810fe41161005957806364810fe41461015a5780637df73e271461016d578063affed0e0146101ad578063f698da25146101c3578063f99115fe146101f757600080fd5b80631703a018146100a15780632ae49a27146100ca57806337a33fc2146100fe5780635ab776c4146101325780635c7f4e541461014757600080fd5b3661009c57005b600080fd5b3480156100ad57600080fd5b506100b760015481565b6040519081526020015b60405180910390f35b3480156100d657600080fd5b506100b77fe8215553482e87e79e569510febbad79fcd0cb116418b7ad11fb14951df6821881565b34801561010a57600080fd5b506100b77f2d38a1f0ad75969000ea6dcd51396cdc874f11e8680ec292ed492eefca949dec81565b6101456101403660046109fb565b61022b565b005b610145610155366004610a63565b6104a7565b610145610168366004610aaf565b6106d8565b34801561017957600080fd5b5061019d610188366004610b67565b60026020526000908152604090205460ff1681565b60405190151581526020016100c1565b3480156101b957600080fd5b506100b760005481565b3480156101cf57600080fd5b506100b77f000000000000000000000000000000000000000000000000000000000000000081565b34801561020357600080fd5b506100b77f85bf243ffaa9e85f5c47a8959fc5b10066a057617ae8358d7b990cd2a86e781481565b60007f00000000000000000000000000000000000000000000000000000000000000007fe8215553482e87e79e569510febbad79fcd0cb116418b7ad11fb14951df68218868660008081548092919061028390610b89565b909155506040805160208101959095526001600160a01b039093169284019290925215156060830152608082015260a001604051602081830303815290604052805190602001206040516020016102db929190610bb0565b60408051601f19818403018152919052805160209091012090506000805b60015481101561043257600060018487878581811061031a5761031a610bcb565b6103309260206060909202019081019150610be1565b88888681811061034257610342610bcb565b9050606002016020013589898781811061035e5761035e610bcb565b905060600201604001356040516000815260200160405260405161039e949392919093845260ff9290921660208401526040830152606082015260800190565b6020604051602081039080840390855afa1580156103c0573d6000803e3d6000fd5b505060408051601f1901516001600160a01b03811660009081526002602052919091205490925060ff161590508061040a5750806001600160a01b0316836001600160a01b031610155b156104285760405163274cf40160e01b815260040160405180910390fd5b91506001016102f9565b50856001600160a01b03167ffcaa24b1276bfa7dbf77797c0a984b9df924acbeaabd48cd2f1b0eca379b78fa86604051610470911515815260200190565b60405180910390a2505050506001600160a01b03919091166000908152600260205260409020805460ff1916911515919091179055565b600080547f0000000000000000000000000000000000000000000000000000000000000000907f85bf243ffaa9e85f5c47a8959fc5b10066a057617ae8358d7b990cd2a86e781490869084806104fc83610b89565b90915550604080516020810194909452830191909152606082015260800160405160208183030381529060405280519060200120604051602001610541929190610bb0565b60408051601f19818403018152919052805160209091012090506000805b60015481101561069857600060018487878581811061058057610580610bcb565b6105969260206060909202019081019150610be1565b8888868181106105a8576105a8610bcb565b905060600201602001358989878181106105c4576105c4610bcb565b9050606002016040013560405160008152602001604052604051610604949392919093845260ff9290921660208401526040830152606082015260800190565b6020604051602081039080840390855afa158015610626573d6000803e3d6000fd5b505060408051601f1901516001600160a01b03811660009081526002602052919091205490925060ff16159050806106705750806001600160a01b0316836001600160a01b031610155b1561068e5760405163274cf40160e01b815260040160405180910390fd5b915060010161055f565b506040518581527ff18f88786aae85a652aadb99a82462616489a33370c9bcc7b245906812ef7cd19060200160405180910390a150505060019190915550565b60007f00000000000000000000000000000000000000000000000000000000000000007f2d38a1f0ad75969000ea6dcd51396cdc874f11e8680ec292ed492eefca949dec8888888860008081548092919061073290610b89565b9190505560405160200161074b96959493929190610c2d565b60405160208183030381529060405280519060200120604051602001610772929190610bb0565b60408051601f19818403018152919052805160209091012090506000805b6001548110156108c95760006001848787858181106107b1576107b1610bcb565b6107c79260206060909202019081019150610be1565b8888868181106107d9576107d9610bcb565b905060600201602001358989878181106107f5576107f5610bcb565b9050606002016040013560405160008152602001604052604051610835949392919093845260ff9290921660208401526040830152606082015260800190565b6020604051602081039080840390855afa158015610857573d6000803e3d6000fd5b505060408051601f1901516001600160a01b03811660009081526002602052919091205490925060ff16159050806108a15750806001600160a01b0316836001600160a01b031610155b156108bf5760405163274cf40160e01b815260040160405180910390fd5b9150600101610790565b507fcaf938de11c367272220bfd1d2baa99ca46665e7bc4d85f00adb51b90fe1fa9f888888886040516108ff9493929190610c6e565b60405180910390a16000886001600160a01b0316888888604051610924929190610ca0565b60006040518083038185875af1925050503d8060008114610961576040519150601f19603f3d011682016040523d82523d6000602084013e610966565b606091505b505090508061098857604051632b3f6d1160e21b815260040160405180910390fd5b505050505050505050565b80356001600160a01b03811681146109aa57600080fd5b919050565b60008083601f8401126109c157600080fd5b50813567ffffffffffffffff8111156109d957600080fd5b6020830191508360206060830285010111156109f457600080fd5b9250929050565b60008060008060608587031215610a1157600080fd5b610a1a85610993565b935060208501358015158114610a2f57600080fd5b9250604085013567ffffffffffffffff811115610a4b57600080fd5b610a57878288016109af565b95989497509550505050565b600080600060408486031215610a7857600080fd5b83359250602084013567ffffffffffffffff811115610a9657600080fd5b610aa2868287016109af565b9497909650939450505050565b60008060008060008060808789031215610ac857600080fd5b610ad187610993565b955060208701359450604087013567ffffffffffffffff80821115610af557600080fd5b818901915089601f830112610b0957600080fd5b813581811115610b1857600080fd5b8a6020828501011115610b2a57600080fd5b602083019650809550506060890135915080821115610b4857600080fd5b50610b5589828a016109af565b979a9699509497509295939492505050565b600060208284031215610b7957600080fd5b610b8282610993565b9392505050565b600060018201610ba957634e487b7160e01b600052601160045260246000fd5b5060010190565b61190160f01b81526002810192909252602282015260420190565b634e487b7160e01b600052603260045260246000fd5b600060208284031215610bf357600080fd5b813560ff81168114610b8257600080fd5b81835281816020850137506000828201602090810191909152601f909101601f19169091010190565b86815260018060a01b038616602082015284604082015260a060608201526000610c5b60a083018587610c04565b9050826080830152979650505050505050565b60018060a01b0385168152836020820152606060408201526000610c96606083018486610c04565b9695505050505050565b818382376000910190815291905056fea2646970667358221220b6362d0503b7d25f510b6ae0a95fadf8761c0b1537f1f64b5c7722d89cf7375064736f6c63430008110033",
    "linkReferences": {}
  },
  "methodIdentifiers": {
    "EXECUTE_HASH()": "37a33fc2",
    "QUORUM_HASH()": "f99115fe",
    "SIGNER_HASH()": "2ae49a27",
    "domainSeparator()": "f698da25",
    "execute(address,uint256,bytes,(uint8,bytes32,bytes32)[])": "64810fe4",
    "isSigner(address)": "7df73e27",
    "nonce()": "affed0e0",
    "quorum()": "1703a018",
    "setQuorum(uint256,(uint8,bytes32,bytes32)[])": "5c7f4e54",
    "setSigner(address,bool,(uint8,bytes32,bytes32)[])": "5ab776c4"
  },
  "id": 5
}