{
  "abi": [
    {
      "inputs": [
        {
          "internalType": "string",
          "name": "_name",
          "type": "string"
        },
        {
          "internalType": "address[]",
          "name": "_signers",
          "type": "address[]"
        },
        {
          "internalType": "uint256",
          "name": "_quorum",
          "type": "uint256"
        }
      ],
      "stateMutability": "payable",
      "type": "constructor"
    },
    {
      "inputs": [],
      "name": "ExecutionFailed",
      "type": "error"
    },
    {
      "inputs": [],
      "name": "InvalidSignatures",
      "type": "error"
    },
    {
      "anonymous": false,
      "inputs": [
        {
          "indexed": false,
          "internalType": "address",
          "name": "target",
          "type": "address"
        },
        {
          "indexed": false,
          "internalType": "uint256",
          "name": "value",
          "type": "uint256"
        },
        {
          "indexed": false,
          "internalType": "bytes",
          "name": "payload",
          "type": "bytes"
        }
      ],
      "name": "Executed",
      "type": "event"
    },
    {
      "anonymous": false,
      "inputs": [
        {
          "indexed": false,
          "internalType": "uint256",
          "name": "newQuorum",
          "type": "uint256"
        }
      ],
      "name": "QuorumUpdated",
      "type": "event"
    },
    {
      "anonymous": false,
      "inputs": [
        {
          "indexed": true,
          "internalType": "address",
          "name": "signer",
          "type": "address"
        },
        {
          "indexed": false,
          "internalType": "bool",
          "name": "shouldTrust",
          "type": "bool"
        }
      ],
      "name": "SignerUpdated",
      "type": "event"
    },
    {
      "inputs": [],
      "name": "EXECUTE_HASH",
      "outputs": [
        {
          "internalType": "bytes32",
          "name": "",
          "type": "bytes32"
        }
      ],
      "stateMutability": "view",
      "type": "function"
    },
    {
      "inputs": [],
      "name": "QUORUM_HASH",
      "outputs": [
        {
          "internalType": "bytes32",
          "name": "",
          "type": "bytes32"
        }
      ],
      "stateMutability": "view",
      "type": "function"
    },
    {
      "inputs": [],
      "name": "SIGNER_HASH",
      "outputs": [
        {
          "internalType": "bytes32",
          "name": "",
          "type": "bytes32"
        }
      ],
      "stateMutability": "view",
      "type": "function"
    },
    {
      "inputs": [],
      "name": "domainSeparator",
      "outputs": [
        {
          "internalType": "bytes32",
          "name": "",
          "type": "bytes32"
        }
      ],
      "stateMutability": "view",
      "type": "function"
    },
    {
      "inputs": [
        {
          "internalType": "address",
          "name": "target",
          "type": "address"
        },
        {
          "internalType": "uint256",
          "name": "value",
          "type": "uint256"
        },
        {
          "internalType": "bytes",
          "name": "payload",
          "type": "bytes"
        },
        {
          "components": [
            {
              "internalType": "uint8",
              "name": "v",
              "type": "uint8"
            },
            {
              "internalType": "bytes32",
              "name": "r",
              "type": "bytes32"
            },
            {
              "internalType": "bytes32",
              "name": "s",
              "type": "bytes32"
            }
          ],
          "internalType": "struct Safe.Signature[]",
          "name": "sigs",
          "type": "tuple[]"
        }
      ],
      "name": "execute",
      "outputs": [],
      "stateMutability": "payable",
      "type": "function"
    },
    {
      "inputs": [],
      "name": "getOwners",
      "outputs": [
        {
          "internalType": "address[]",
          "name": "",
          "type": "address[]"
        }
      ],
      "stateMutability": "view",
      "type": "function"
    },
    {
      "inputs": [
        {
          "internalType": "address",
          "name": "",
          "type": "address"
        }
      ],
      "name": "isSigner",
      "outputs": [
        {
          "internalType": "bool",
          "name": "",
          "type": "bool"
        }
      ],
      "stateMutability": "view",
      "type": "function"
    },
    {
      "inputs": [],
      "name": "name",
      "outputs": [
        {
          "internalType": "string",
          "name": "",
          "type": "string"
        }
      ],
      "stateMutability": "view",
      "type": "function"
    },
    {
      "inputs": [],
      "name": "nonce",
      "outputs": [
        {
          "internalType": "uint256",
          "name": "",
          "type": "uint256"
        }
      ],
      "stateMutability": "view",
      "type": "function"
    },
    {
      "inputs": [],
      "name": "quorum",
      "outputs": [
        {
          "internalType": "uint256",
          "name": "",
          "type": "uint256"
        }
      ],
      "stateMutability": "view",
      "type": "function"
    },
    {
      "inputs": [
        {
          "internalType": "uint256",
          "name": "_quorum",
          "type": "uint256"
        },
        {
          "components": [
            {
              "internalType": "uint8",
              "name": "v",
              "type": "uint8"
            },
            {
              "internalType": "bytes32",
              "name": "r",
              "type": "bytes32"
            },
            {
              "internalType": "bytes32",
              "name": "s",
              "type": "bytes32"
            }
          ],
          "internalType": "struct Safe.Signature[]",
          "name": "sigs",
          "type": "tuple[]"
        }
      ],
      "name": "setQuorum",
      "outputs": [],
      "stateMutability": "payable",
      "type": "function"
    },
    {
      "inputs": [
        {
          "internalType": "address",
          "name": "signer",
          "type": "address"
        },
        {
          "internalType": "bool",
          "name": "shouldTrust",
          "type": "bool"
        },
        {
          "components": [
            {
              "internalType": "uint8",
              "name": "v",
              "type": "uint8"
            },
            {
              "internalType": "bytes32",
              "name": "r",
              "type": "bytes32"
            },
            {
              "internalType": "bytes32",
              "name": "s",
              "type": "bytes32"
            }
          ],
          "internalType": "struct Safe.Signature[]",
          "name": "sigs",
          "type": "tuple[]"
        }
      ],
      "name": "setSigner",
      "outputs": [],
      "stateMutability": "payable",
      "type": "function"
    },
    {
      "stateMutability": "payable",
      "type": "receive"
    }
  ],
  "bytecode": {
    "object": "0x60a06040526001600055604051620014e9380380620014e98339810160408190526200002b91620002db565b60005b82518110156200008e57600160036000858481518110620000535762000053620003c0565b6020908102919091018101516001600160a01b03168252810191909152604001600020805460ff19169115159190911790556001016200002e565b5060026200009d848262000465565b5060018190558151620000b890600490602085019062000172565b507f8b73c3c69bb8fe3d512ecc4cf759cc79239f7b179b0ffacaa9a75d522b39400f6002604051620000eb919062000531565b60408051918290038220828201825260018352603160f81b6020938401528151928301939093528101919091527fc89efdaa54c0f20c7adf612882df0950f5a951637e0307cdcb4c672f298b8bc660608201524660808201523060a082015260c00160408051601f19818403018152919052805160209091012060805250620005af915050565b828054828255906000526020600020908101928215620001ca579160200282015b82811115620001ca57825182546001600160a01b0319166001600160a01b0390911617825560209092019160019091019062000193565b50620001d8929150620001dc565b5090565b5b80821115620001d85760008155600101620001dd565b634e487b7160e01b600052604160045260246000fd5b604051601f8201601f191681016001600160401b0381118282101715620002345762000234620001f3565b604052919050565b600082601f8301126200024e57600080fd5b815160206001600160401b038211156200026c576200026c620001f3565b8160051b6200027d82820162000209565b92835284810182019282810190878511156200029857600080fd5b83870192505b84831015620002d05782516001600160a01b0381168114620002c05760008081fd5b825291830191908301906200029e565b979650505050505050565b600080600060608486031215620002f157600080fd5b83516001600160401b03808211156200030957600080fd5b818601915086601f8301126200031e57600080fd5b815181811115620003335762000333620001f3565b602062000349601f8301601f1916820162000209565b82815289828487010111156200035e57600080fd5b60005b838110156200037e57858101830151828201840152820162000361565b506000928101820192909252870151909550915080821115620003a057600080fd5b50620003af868287016200023c565b925050604084015190509250925092565b634e487b7160e01b600052603260045260246000fd5b600181811c90821680620003eb57607f821691505b6020821081036200040c57634e487b7160e01b600052602260045260246000fd5b50919050565b601f8211156200046057600081815260208120601f850160051c810160208610156200043b5750805b601f850160051c820191505b818110156200045c5782815560010162000447565b5050505b505050565b81516001600160401b03811115620004815762000481620001f3565b6200049981620004928454620003d6565b8462000412565b602080601f831160018114620004d15760008415620004b85750858301515b600019600386901b1c1916600185901b1785556200045c565b600085815260208120601f198616915b828110156200050257888601518255948401946001909101908401620004e1565b5085821015620005215787850151600019600388901b60f8161c191681555b5050505050600190811b01905550565b60008083546200054181620003d6565b600182811680156200055c57600181146200057257620005a3565b60ff1984168752821515830287019450620005a3565b8760005260208060002060005b858110156200059a5781548a8201529084019082016200057f565b50505082870194505b50929695505050505050565b608051610f09620005e0600039600081816102330152818161031b0152818161059901526107c80152610f096000f3fe6080604052600436106100ab5760003560e01c806364810fe41161006457806364810fe4146101965780637df73e27146101a9578063a0e67e2b146101e9578063affed0e01461020b578063f698da2514610221578063f99115fe1461025557600080fd5b806306fdde03146100b75780631703a018146100e25780632ae49a271461010657806337a33fc21461013a5780635ab776c41461016e5780635c7f4e541461018357600080fd5b366100b257005b600080fd5b3480156100c357600080fd5b506100cc610289565b6040516100d99190610ae1565b60405180910390f35b3480156100ee57600080fd5b506100f860015481565b6040519081526020016100d9565b34801561011257600080fd5b506100f87fe8215553482e87e79e569510febbad79fcd0cb116418b7ad11fb14951df6821881565b34801561014657600080fd5b506100f87f2d38a1f0ad75969000ea6dcd51396cdc874f11e8680ec292ed492eefca949dec81565b61018161017c366004610b97565b610317565b005b610181610191366004610bff565b610593565b6101816101a4366004610c4b565b6107c4565b3480156101b557600080fd5b506101d96101c4366004610d03565b60036020526000908152604090205460ff1681565b60405190151581526020016100d9565b3480156101f557600080fd5b506101fe610a7f565b6040516100d99190610d25565b34801561021757600080fd5b506100f860005481565b34801561022d57600080fd5b506100f87f000000000000000000000000000000000000000000000000000000000000000081565b34801561026157600080fd5b506100f87f85bf243ffaa9e85f5c47a8959fc5b10066a057617ae8358d7b990cd2a86e781481565b6002805461029690610d72565b80601f01602080910402602001604051908101604052809291908181526020018280546102c290610d72565b801561030f5780601f106102e45761010080835404028352916020019161030f565b820191906000526020600020905b8154815290600101906020018083116102f257829003601f168201915b505050505081565b60007f00000000000000000000000000000000000000000000000000000000000000007fe8215553482e87e79e569510febbad79fcd0cb116418b7ad11fb14951df68218868660008081548092919061036f90610dac565b909155506040805160208101959095526001600160a01b039093169284019290925215156060830152608082015260a001604051602081830303815290604052805190602001206040516020016103c7929190610dd3565b60408051601f19818403018152919052805160209091012090506000805b60015481101561051e57600060018487878581811061040657610406610dee565b61041c9260206060909202019081019150610e04565b88888681811061042e5761042e610dee565b9050606002016020013589898781811061044a5761044a610dee565b905060600201604001356040516000815260200160405260405161048a949392919093845260ff9290921660208401526040830152606082015260800190565b6020604051602081039080840390855afa1580156104ac573d6000803e3d6000fd5b505060408051601f1901516001600160a01b03811660009081526003602052919091205490925060ff16159050806104f65750806001600160a01b0316836001600160a01b031610155b156105145760405163274cf40160e01b815260040160405180910390fd5b91506001016103e5565b50856001600160a01b03167ffcaa24b1276bfa7dbf77797c0a984b9df924acbeaabd48cd2f1b0eca379b78fa8660405161055c911515815260200190565b60405180910390a2505050506001600160a01b03919091166000908152600360205260409020805460ff1916911515919091179055565b600080547f0000000000000000000000000000000000000000000000000000000000000000907f85bf243ffaa9e85f5c47a8959fc5b10066a057617ae8358d7b990cd2a86e781490869084806105e883610dac565b9091555060408051602081019490945283019190915260608201526080016040516020818303038152906040528051906020012060405160200161062d929190610dd3565b60408051601f19818403018152919052805160209091012090506000805b60015481101561078457600060018487878581811061066c5761066c610dee565b6106829260206060909202019081019150610e04565b88888681811061069457610694610dee565b905060600201602001358989878181106106b0576106b0610dee565b90506060020160400135604051600081526020016040526040516106f0949392919093845260ff9290921660208401526040830152606082015260800190565b6020604051602081039080840390855afa158015610712573d6000803e3d6000fd5b505060408051601f1901516001600160a01b03811660009081526003602052919091205490925060ff161590508061075c5750806001600160a01b0316836001600160a01b031610155b1561077a5760405163274cf40160e01b815260040160405180910390fd5b915060010161064b565b506040518581527ff18f88786aae85a652aadb99a82462616489a33370c9bcc7b245906812ef7cd19060200160405180910390a150505060019190915550565b60007f00000000000000000000000000000000000000000000000000000000000000007f2d38a1f0ad75969000ea6dcd51396cdc874f11e8680ec292ed492eefca949dec8888888860008081548092919061081e90610dac565b9190505560405160200161083796959493929190610e50565b6040516020818303038152906040528051906020012060405160200161085e929190610dd3565b60408051601f19818403018152919052805160209091012090506000805b6001548110156109b557600060018487878581811061089d5761089d610dee565b6108b39260206060909202019081019150610e04565b8888868181106108c5576108c5610dee565b905060600201602001358989878181106108e1576108e1610dee565b9050606002016040013560405160008152602001604052604051610921949392919093845260ff9290921660208401526040830152606082015260800190565b6020604051602081039080840390855afa158015610943573d6000803e3d6000fd5b505060408051601f1901516001600160a01b03811660009081526003602052919091205490925060ff161590508061098d5750806001600160a01b0316836001600160a01b031610155b156109ab5760405163274cf40160e01b815260040160405180910390fd5b915060010161087c565b507fcaf938de11c367272220bfd1d2baa99ca46665e7bc4d85f00adb51b90fe1fa9f888888886040516109eb9493929190610e91565b60405180910390a16000886001600160a01b0316888888604051610a10929190610ec3565b60006040518083038185875af1925050503d8060008114610a4d576040519150601f19603f3d011682016040523d82523d6000602084013e610a52565b606091505b5050905080610a7457604051632b3f6d1160e21b815260040160405180910390fd5b505050505050505050565b60606004805480602002602001604051908101604052809291908181526020018280548015610ad757602002820191906000526020600020905b81546001600160a01b03168152600190910190602001808311610ab9575b5050505050905090565b600060208083528351808285015260005b81811015610b0e57858101830151858201604001528201610af2565b506000604082860101526040601f19601f8301168501019250505092915050565b80356001600160a01b0381168114610b4657600080fd5b919050565b60008083601f840112610b5d57600080fd5b50813567ffffffffffffffff811115610b7557600080fd5b602083019150836020606083028501011115610b9057600080fd5b9250929050565b60008060008060608587031215610bad57600080fd5b610bb685610b2f565b935060208501358015158114610bcb57600080fd5b9250604085013567ffffffffffffffff811115610be757600080fd5b610bf387828801610b4b565b95989497509550505050565b600080600060408486031215610c1457600080fd5b83359250602084013567ffffffffffffffff811115610c3257600080fd5b610c3e86828701610b4b565b9497909650939450505050565b60008060008060008060808789031215610c6457600080fd5b610c6d87610b2f565b955060208701359450604087013567ffffffffffffffff80821115610c9157600080fd5b818901915089601f830112610ca557600080fd5b813581811115610cb457600080fd5b8a6020828501011115610cc657600080fd5b602083019650809550506060890135915080821115610ce457600080fd5b50610cf189828a01610b4b565b979a9699509497509295939492505050565b600060208284031215610d1557600080fd5b610d1e82610b2f565b9392505050565b6020808252825182820181905260009190848201906040850190845b81811015610d665783516001600160a01b031683529284019291840191600101610d41565b50909695505050505050565b600181811c90821680610d8657607f821691505b602082108103610da657634e487b7160e01b600052602260045260246000fd5b50919050565b600060018201610dcc57634e487b7160e01b600052601160045260246000fd5b5060010190565b61190160f01b81526002810192909252602282015260420190565b634e487b7160e01b600052603260045260246000fd5b600060208284031215610e1657600080fd5b813560ff81168114610d1e57600080fd5b81835281816020850137506000828201602090810191909152601f909101601f19169091010190565b86815260018060a01b038616602082015284604082015260a060608201526000610e7e60a083018587610e27565b9050826080830152979650505050505050565b60018060a01b0385168152836020820152606060408201526000610eb9606083018486610e27565b9695505050505050565b818382376000910190815291905056fea26469706673582212204338b074d0b579992777c210abd3f62a221392576ec983d20b91fdf3f75eabdc64736f6c63430008110033",
    "linkReferences": {}
  },
  "methodIdentifiers": {
    "EXECUTE_HASH()": "37a33fc2",
    "QUORUM_HASH()": "f99115fe",
    "SIGNER_HASH()": "2ae49a27",
    "domainSeparator()": "f698da25",
    "execute(address,uint256,bytes,(uint8,bytes32,bytes32)[])": "64810fe4",
    "getOwners()": "a0e67e2b",
    "isSigner(address)": "7df73e27",
    "name()": "06fdde03",
    "nonce()": "affed0e0",
    "quorum()": "1703a018",
    "setQuorum(uint256,(uint8,bytes32,bytes32)[])": "5c7f4e54",
    "setSigner(address,bool,(uint8,bytes32,bytes32)[])": "5ab776c4"
  },
  "id": 4
}