{
  "abi": [
    {
      "inputs": [
        {
          "internalType": "string",
          "name": "name",
          "type": "string"
        },
        {
          "internalType": "address[]",
          "name": "signers",
          "type": "address[]"
        },
        {
          "internalType": "uint256",
          "name": "_quorum",
          "type": "uint256"
        }
      ],
      "stateMutability": "payable",
      "type": "constructor"
    },
    {
      "inputs": [],
      "name": "ExecutionFailed",
      "type": "error"
    },
    {
      "inputs": [],
      "name": "InvalidSignatures",
      "type": "error"
    },
    {
      "anonymous": false,
      "inputs": [
        {
          "indexed": false,
          "internalType": "address",
          "name": "target",
          "type": "address"
        },
        {
          "indexed": false,
          "internalType": "uint256",
          "name": "value",
          "type": "uint256"
        },
        {
          "indexed": false,
          "internalType": "bytes",
          "name": "payload",
          "type": "bytes"
        }
      ],
      "name": "Executed",
      "type": "event"
    },
    {
      "anonymous": false,
      "inputs": [
        {
          "indexed": false,
          "internalType": "uint256",
          "name": "newQuorum",
          "type": "uint256"
        }
      ],
      "name": "QuorumUpdated",
      "type": "event"
    },
    {
      "anonymous": false,
      "inputs": [
        {
          "indexed": true,
          "internalType": "address",
          "name": "signer",
          "type": "address"
        },
        {
          "indexed": false,
          "internalType": "bool",
          "name": "shouldTrust",
          "type": "bool"
        }
      ],
      "name": "SignerUpdated",
      "type": "event"
    },
    {
      "inputs": [],
      "name": "EXECUTE_HASH",
      "outputs": [
        {
          "internalType": "bytes32",
          "name": "",
          "type": "bytes32"
        }
      ],
      "stateMutability": "view",
      "type": "function"
    },
    {
      "inputs": [],
      "name": "QUORUM_HASH",
      "outputs": [
        {
          "internalType": "bytes32",
          "name": "",
          "type": "bytes32"
        }
      ],
      "stateMutability": "view",
      "type": "function"
    },
    {
      "inputs": [],
      "name": "SIGNER_HASH",
      "outputs": [
        {
          "internalType": "bytes32",
          "name": "",
          "type": "bytes32"
        }
      ],
      "stateMutability": "view",
      "type": "function"
    },
    {
      "inputs": [],
      "name": "domainSeparator",
      "outputs": [
        {
          "internalType": "bytes32",
          "name": "",
          "type": "bytes32"
        }
      ],
      "stateMutability": "view",
      "type": "function"
    },
    {
      "inputs": [
        {
          "internalType": "address",
          "name": "target",
          "type": "address"
        },
        {
          "internalType": "uint256",
          "name": "value",
          "type": "uint256"
        },
        {
          "internalType": "bytes",
          "name": "payload",
          "type": "bytes"
        },
        {
          "components": [
            {
              "internalType": "uint8",
              "name": "v",
              "type": "uint8"
            },
            {
              "internalType": "bytes32",
              "name": "r",
              "type": "bytes32"
            },
            {
              "internalType": "bytes32",
              "name": "s",
              "type": "bytes32"
            }
          ],
          "internalType": "struct Safe.Signature[]",
          "name": "sigs",
          "type": "tuple[]"
        }
      ],
      "name": "execute",
      "outputs": [],
      "stateMutability": "payable",
      "type": "function"
    },
    {
      "inputs": [
        {
          "internalType": "address",
          "name": "target",
          "type": "address"
        },
        {
          "internalType": "uint256",
          "name": "value",
          "type": "uint256"
        },
        {
          "internalType": "bytes",
          "name": "payload",
          "type": "bytes"
        },
        {
          "components": [
            {
              "internalType": "uint8",
              "name": "v",
              "type": "uint8"
            },
            {
              "internalType": "bytes32",
              "name": "r",
              "type": "bytes32"
            },
            {
              "internalType": "bytes32",
              "name": "s",
              "type": "bytes32"
            }
          ],
          "internalType": "struct Safe.Signature[]",
          "name": "sigs",
          "type": "tuple[]"
        }
      ],
      "name": "executeTest",
      "outputs": [],
      "stateMutability": "payable",
      "type": "function"
    },
    {
      "inputs": [],
      "name": "getOwners",
      "outputs": [
        {
          "internalType": "address[]",
          "name": "",
          "type": "address[]"
        }
      ],
      "stateMutability": "view",
      "type": "function"
    },
    {
      "inputs": [
        {
          "internalType": "address",
          "name": "",
          "type": "address"
        }
      ],
      "name": "isSigner",
      "outputs": [
        {
          "internalType": "bool",
          "name": "",
          "type": "bool"
        }
      ],
      "stateMutability": "view",
      "type": "function"
    },
    {
      "inputs": [],
      "name": "nonce",
      "outputs": [
        {
          "internalType": "uint256",
          "name": "",
          "type": "uint256"
        }
      ],
      "stateMutability": "view",
      "type": "function"
    },
    {
      "inputs": [],
      "name": "quorum",
      "outputs": [
        {
          "internalType": "uint256",
          "name": "",
          "type": "uint256"
        }
      ],
      "stateMutability": "view",
      "type": "function"
    },
    {
      "inputs": [],
      "name": "received",
      "outputs": [
        {
          "internalType": "uint256",
          "name": "",
          "type": "uint256"
        }
      ],
      "stateMutability": "view",
      "type": "function"
    },
    {
      "inputs": [
        {
          "internalType": "uint256",
          "name": "_quorum",
          "type": "uint256"
        },
        {
          "components": [
            {
              "internalType": "uint8",
              "name": "v",
              "type": "uint8"
            },
            {
              "internalType": "bytes32",
              "name": "r",
              "type": "bytes32"
            },
            {
              "internalType": "bytes32",
              "name": "s",
              "type": "bytes32"
            }
          ],
          "internalType": "struct Safe.Signature[]",
          "name": "sigs",
          "type": "tuple[]"
        }
      ],
      "name": "setQuorum",
      "outputs": [],
      "stateMutability": "payable",
      "type": "function"
    },
    {
      "inputs": [
        {
          "internalType": "address",
          "name": "signer",
          "type": "address"
        },
        {
          "internalType": "bool",
          "name": "shouldTrust",
          "type": "bool"
        },
        {
          "components": [
            {
              "internalType": "uint8",
              "name": "v",
              "type": "uint8"
            },
            {
              "internalType": "bytes32",
              "name": "r",
              "type": "bytes32"
            },
            {
              "internalType": "bytes32",
              "name": "s",
              "type": "bytes32"
            }
          ],
          "internalType": "struct Safe.Signature[]",
          "name": "sigs",
          "type": "tuple[]"
        }
      ],
      "name": "setSigner",
      "outputs": [],
      "stateMutability": "payable",
      "type": "function"
    },
    {
      "inputs": [
        {
          "internalType": "string",
          "name": "_msg",
          "type": "string"
        },
        {
          "components": [
            {
              "internalType": "uint8",
              "name": "v",
              "type": "uint8"
            },
            {
              "internalType": "bytes32",
              "name": "r",
              "type": "bytes32"
            },
            {
              "internalType": "bytes32",
              "name": "s",
              "type": "bytes32"
            }
          ],
          "internalType": "struct Safe.Signature",
          "name": "sig",
          "type": "tuple"
        }
      ],
      "name": "test",
      "outputs": [
        {
          "internalType": "address",
          "name": "",
          "type": "address"
        }
      ],
      "stateMutability": "pure",
      "type": "function"
    },
    {
      "stateMutability": "payable",
      "type": "receive"
    }
  ],
  "bytecode": {
    "object": "0x60a0604052600160005560405162001724380380620017248339810160408190526200002b91620002bb565b60005b82518110156200008e57600160036000858481518110620000535762000053620003a0565b6020908102919091018101516001600160a01b03168252810191909152604001600020805460ff19169115159190911790556001016200002e565b5060018190558151620000a990600490602085019062000152565b50825160208085019190912060408051808201825260018152603160f81b9084015280517f8b73c3c69bb8fe3d512ecc4cf759cc79239f7b179b0ffacaa9a75d522b39400f938101939093528201527fc89efdaa54c0f20c7adf612882df0950f5a951637e0307cdcb4c672f298b8bc660608201524660808201523060a082015260c00160408051601f19818403018152919052805160209091012060805250620003b6915050565b828054828255906000526020600020908101928215620001aa579160200282015b82811115620001aa57825182546001600160a01b0319166001600160a01b0390911617825560209092019160019091019062000173565b50620001b8929150620001bc565b5090565b5b80821115620001b85760008155600101620001bd565b634e487b7160e01b600052604160045260246000fd5b604051601f8201601f191681016001600160401b0381118282101715620002145762000214620001d3565b604052919050565b600082601f8301126200022e57600080fd5b815160206001600160401b038211156200024c576200024c620001d3565b8160051b6200025d828201620001e9565b92835284810182019282810190878511156200027857600080fd5b83870192505b84831015620002b05782516001600160a01b0381168114620002a05760008081fd5b825291830191908301906200027e565b979650505050505050565b600080600060608486031215620002d157600080fd5b83516001600160401b0380821115620002e957600080fd5b818601915086601f830112620002fe57600080fd5b815181811115620003135762000313620001d3565b602062000329601f8301601f19168201620001e9565b82815289828487010111156200033e57600080fd5b60005b838110156200035e57858101830151828201840152820162000341565b5060009281018201929092528701519095509150808211156200038057600080fd5b506200038f868287016200021c565b925050604084015190509250925092565b634e487b7160e01b600052603260045260246000fd5b608051611336620003ee600039600081816102a4015281816102fe0152818161057c015281816108a00152610b5b01526113366000f3fe6080604052600436106100e15760003560e01c80637df73e271161007f578063a0e67e2b11610059578063a0e67e2b1461025a578063affed0e01461027c578063f698da2514610292578063f99115fe146102c657600080fd5b80637df73e27146101f157806383a6deb514610231578063858d982a1461024757600080fd5b80635ab776c4116100bb5780635ab776c41461017e5780635c7f4e54146101935780636157a8df146101a657806364810fe4146101de57600080fd5b80631703a018146100ed5780632ae49a271461011657806337a33fc21461014a57600080fd5b366100e857005b600080fd5b3480156100f957600080fd5b5061010360015481565b6040519081526020015b60405180910390f35b34801561012257600080fd5b506101037fe8215553482e87e79e569510febbad79fcd0cb116418b7ad11fb14951df6821881565b34801561015657600080fd5b506101037f2d38a1f0ad75969000ea6dcd51396cdc874f11e8680ec292ed492eefca949dec81565b61019161018c366004610e77565b6102fa565b005b6101916101a1366004610edf565b610576565b3480156101b257600080fd5b506101c66101c1366004610fe4565b6107a7565b6040516001600160a01b03909116815260200161010d565b6101916101ec36600461108b565b61089c565b3480156101fd57600080fd5b5061022161020c366004611143565b60036020526000908152604090205460ff1681565b604051901515815260200161010d565b34801561023d57600080fd5b5061010360025481565b61019161025536600461108b565b610b57565b34801561026657600080fd5b5061026f610dad565b60405161010d9190611165565b34801561028857600080fd5b5061010360005481565b34801561029e57600080fd5b506101037f000000000000000000000000000000000000000000000000000000000000000081565b3480156102d257600080fd5b506101037f85bf243ffaa9e85f5c47a8959fc5b10066a057617ae8358d7b990cd2a86e781481565b60007f00000000000000000000000000000000000000000000000000000000000000007fe8215553482e87e79e569510febbad79fcd0cb116418b7ad11fb14951df682188686600080815480929190610352906111b2565b909155506040805160208101959095526001600160a01b039093169284019290925215156060830152608082015260a001604051602081830303815290604052805190602001206040516020016103aa9291906111d9565b60408051601f19818403018152919052805160209091012090506000805b6001548110156105015760006001848787858181106103e9576103e96111f4565b6103ff926020606090920201908101915061120a565b888886818110610411576104116111f4565b9050606002016020013589898781811061042d5761042d6111f4565b905060600201604001356040516000815260200160405260405161046d949392919093845260ff9290921660208401526040830152606082015260800190565b6020604051602081039080840390855afa15801561048f573d6000803e3d6000fd5b505060408051601f1901516001600160a01b03811660009081526003602052919091205490925060ff16159050806104d95750806001600160a01b0316836001600160a01b031610155b156104f75760405163274cf40160e01b815260040160405180910390fd5b91506001016103c8565b50856001600160a01b03167ffcaa24b1276bfa7dbf77797c0a984b9df924acbeaabd48cd2f1b0eca379b78fa8660405161053f911515815260200190565b60405180910390a2505050506001600160a01b03919091166000908152600360205260409020805460ff1916911515919091179055565b600080547f0000000000000000000000000000000000000000000000000000000000000000907f85bf243ffaa9e85f5c47a8959fc5b10066a057617ae8358d7b990cd2a86e781490869084806105cb836111b2565b909155506040805160208101949094528301919091526060820152608001604051602081830303815290604052805190602001206040516020016106109291906111d9565b60408051601f19818403018152919052805160209091012090506000805b60015481101561076757600060018487878581811061064f5761064f6111f4565b610665926020606090920201908101915061120a565b888886818110610677576106776111f4565b90506060020160200135898987818110610693576106936111f4565b90506060020160400135604051600081526020016040526040516106d3949392919093845260ff9290921660208401526040830152606082015260800190565b6020604051602081039080840390855afa1580156106f5573d6000803e3d6000fd5b505060408051601f1901516001600160a01b03811660009081526003602052919091205490925060ff161590508061073f5750806001600160a01b0316836001600160a01b031610155b1561075d5760405163274cf40160e01b815260040160405180910390fd5b915060010161062e565b506040518581527ff18f88786aae85a652aadb99a82462616489a33370c9bcc7b245906812ef7cd19060200160405180910390a150505060019190915550565b600080836040516020016107bb9190611225565b60408051601f198184030181529082905280516020918201207f19457468657265756d205369676e6564204d6573736167653a0a33320000000091830191909152603c820152605c01604051602081830303815290604052805190602001209050600060018285600001518660200151876040015160405160008152602001604052604051610866949392919093845260ff9290921660208401526040830152606082015260800190565b6020604051602081039080840390855afa158015610888573d6000803e3d6000fd5b5050604051601f1901519695505050505050565b60007f00000000000000000000000000000000000000000000000000000000000000007f2d38a1f0ad75969000ea6dcd51396cdc874f11e8680ec292ed492eefca949dec888888886000808154809291906108f6906111b2565b9190505560405160200161090f9695949392919061127d565b604051602081830303815290604052805190602001206040516020016109369291906111d9565b60408051601f19818403018152919052805160209091012090506000805b600154811015610a8d576000600184878785818110610975576109756111f4565b61098b926020606090920201908101915061120a565b88888681811061099d5761099d6111f4565b905060600201602001358989878181106109b9576109b96111f4565b90506060020160400135604051600081526020016040526040516109f9949392919093845260ff9290921660208401526040830152606082015260800190565b6020604051602081039080840390855afa158015610a1b573d6000803e3d6000fd5b505060408051601f1901516001600160a01b03811660009081526003602052919091205490925060ff1615905080610a655750806001600160a01b0316836001600160a01b031610155b15610a835760405163274cf40160e01b815260040160405180910390fd5b9150600101610954565b507fcaf938de11c367272220bfd1d2baa99ca46665e7bc4d85f00adb51b90fe1fa9f88888888604051610ac394939291906112be565b60405180910390a16000886001600160a01b0316888888604051610ae89291906112f0565b60006040518083038185875af1925050503d8060008114610b25576040519150601f19603f3d011682016040523d82523d6000602084013e610b2a565b606091505b5050905080610b4c57604051632b3f6d1160e21b815260040160405180910390fd5b505050505050505050565b60007f00000000000000000000000000000000000000000000000000000000000000007f2d38a1f0ad75969000ea6dcd51396cdc874f11e8680ec292ed492eefca949dec88888888600080815480929190610bb1906111b2565b91905055604051602001610bca9695949392919061127d565b60405160208183030381529060405280519060200120604051602001610bf19291906111d9565b604051602081830303815290604052805190602001209050600060018285856000818110610c2157610c216111f4565b610c37926020606090920201908101915061120a565b86866000818110610c4a57610c4a6111f4565b9050606002016020013587876000818110610c6757610c676111f4565b9050606002016040013560405160008152602001604052604051610ca7949392919093845260ff9290921660208401526040830152606082015260800190565b6020604051602081039080840390855afa158015610cc9573d6000803e3d6000fd5b505060408051601f1901516001600160a01b03811660009081526003602052919091205490925060ff16159050610d63576000886001600160a01b0316888888604051610d179291906112f0565b60006040518083038185875af1925050503d8060008114610d54576040519150601f19603f3d011682016040523d82523d6000602084013e610d59565b606091505b5050905050610da3565b60405162461bcd60e51b81526020600482015260116024820152703e3e3e2077726f6e67206164647265737360781b604482015260640160405180910390fd5b5050505050505050565b60606004805480602002602001604051908101604052809291908181526020018280548015610e0557602002820191906000526020600020905b81546001600160a01b03168152600190910190602001808311610de7575b5050505050905090565b80356001600160a01b0381168114610e2657600080fd5b919050565b60008083601f840112610e3d57600080fd5b50813567ffffffffffffffff811115610e5557600080fd5b602083019150836020606083028501011115610e7057600080fd5b9250929050565b60008060008060608587031215610e8d57600080fd5b610e9685610e0f565b935060208501358015158114610eab57600080fd5b9250604085013567ffffffffffffffff811115610ec757600080fd5b610ed387828801610e2b565b95989497509550505050565b600080600060408486031215610ef457600080fd5b83359250602084013567ffffffffffffffff811115610f1257600080fd5b610f1e86828701610e2b565b9497909650939450505050565b634e487b7160e01b600052604160045260246000fd5b604051601f8201601f1916810167ffffffffffffffff81118282101715610f6a57610f6a610f2b565b604052919050565b803560ff81168114610e2657600080fd5b600060608284031215610f9557600080fd5b6040516060810181811067ffffffffffffffff82111715610fb857610fb8610f2b565b604052905080610fc783610f72565b815260208301356020820152604083013560408201525092915050565b60008060808385031215610ff757600080fd5b823567ffffffffffffffff8082111561100f57600080fd5b818501915085601f83011261102357600080fd5b813560208282111561103757611037610f2b565b611049601f8301601f19168201610f41565b9250818352878183860101111561105f57600080fd5b8181850182850137600081838501015282955061107e88828901610f83565b9450505050509250929050565b600080600080600080608087890312156110a457600080fd5b6110ad87610e0f565b955060208701359450604087013567ffffffffffffffff808211156110d157600080fd5b818901915089601f8301126110e557600080fd5b8135818111156110f457600080fd5b8a602082850101111561110657600080fd5b60208301965080955050606089013591508082111561112457600080fd5b5061113189828a01610e2b565b979a9699509497509295939492505050565b60006020828403121561115557600080fd5b61115e82610e0f565b9392505050565b6020808252825182820181905260009190848201906040850190845b818110156111a65783516001600160a01b031683529284019291840191600101611181565b50909695505050505050565b6000600182016111d257634e487b7160e01b600052601160045260246000fd5b5060010190565b61190160f01b81526002810192909252602282015260420190565b634e487b7160e01b600052603260045260246000fd5b60006020828403121561121c57600080fd5b61115e82610f72565b6000825160005b81811015611246576020818601810151858301520161122c565b506000920191825250919050565b81835281816020850137506000828201602090810191909152601f909101601f19169091010190565b86815260018060a01b038616602082015284604082015260a0606082015260006112ab60a083018587611254565b9050826080830152979650505050505050565b60018060a01b03851681528360208201526060604082015260006112e6606083018486611254565b9695505050505050565b818382376000910190815291905056fea26469706673582212207cd3bdb7dc289227f4431d0f6b2c5dc61b3920b8535ca14503d9c0cdf7df544d64736f6c63430008110033",
    "linkReferences": {}
  },
  "methodIdentifiers": {
    "EXECUTE_HASH()": "37a33fc2",
    "QUORUM_HASH()": "f99115fe",
    "SIGNER_HASH()": "2ae49a27",
    "domainSeparator()": "f698da25",
    "execute(address,uint256,bytes,(uint8,bytes32,bytes32)[])": "64810fe4",
    "executeTest(address,uint256,bytes,(uint8,bytes32,bytes32)[])": "858d982a",
    "getOwners()": "a0e67e2b",
    "isSigner(address)": "7df73e27",
    "nonce()": "affed0e0",
    "quorum()": "1703a018",
    "received()": "83a6deb5",
    "setQuorum(uint256,(uint8,bytes32,bytes32)[])": "5c7f4e54",
    "setSigner(address,bool,(uint8,bytes32,bytes32)[])": "5ab776c4",
    "test(string,(uint8,bytes32,bytes32))": "6157a8df"
  },
  "id": 2
}