{
  "abi": [
    {
      "inputs": [
        {
          "internalType": "string",
          "name": "_name",
          "type": "string"
        },
        {
          "internalType": "address[]",
          "name": "_signers",
          "type": "address[]"
        },
        {
          "internalType": "uint256",
          "name": "_quorum",
          "type": "uint256"
        }
      ],
      "stateMutability": "payable",
      "type": "constructor"
    },
    {
      "inputs": [],
      "name": "ExecutionFailed",
      "type": "error"
    },
    {
      "inputs": [],
      "name": "InvalidSignatures",
      "type": "error"
    },
    {
      "anonymous": false,
      "inputs": [
        {
          "indexed": false,
          "internalType": "address",
          "name": "target",
          "type": "address"
        },
        {
          "indexed": false,
          "internalType": "uint256",
          "name": "value",
          "type": "uint256"
        },
        {
          "indexed": false,
          "internalType": "bytes",
          "name": "payload",
          "type": "bytes"
        }
      ],
      "name": "Executed",
      "type": "event"
    },
    {
      "anonymous": false,
      "inputs": [
        {
          "indexed": false,
          "internalType": "uint256",
          "name": "newQuorum",
          "type": "uint256"
        }
      ],
      "name": "QuorumUpdated",
      "type": "event"
    },
    {
      "anonymous": false,
      "inputs": [
        {
          "indexed": true,
          "internalType": "address",
          "name": "signer",
          "type": "address"
        },
        {
          "indexed": false,
          "internalType": "bool",
          "name": "shouldTrust",
          "type": "bool"
        }
      ],
      "name": "SignerUpdated",
      "type": "event"
    },
    {
      "inputs": [],
      "name": "EXECUTE_HASH",
      "outputs": [
        {
          "internalType": "bytes32",
          "name": "",
          "type": "bytes32"
        }
      ],
      "stateMutability": "view",
      "type": "function"
    },
    {
      "inputs": [],
      "name": "QUORUM_HASH",
      "outputs": [
        {
          "internalType": "bytes32",
          "name": "",
          "type": "bytes32"
        }
      ],
      "stateMutability": "view",
      "type": "function"
    },
    {
      "inputs": [],
      "name": "SIGNER_HASH",
      "outputs": [
        {
          "internalType": "bytes32",
          "name": "",
          "type": "bytes32"
        }
      ],
      "stateMutability": "view",
      "type": "function"
    },
    {
      "inputs": [],
      "name": "domainSeparator",
      "outputs": [
        {
          "internalType": "bytes32",
          "name": "",
          "type": "bytes32"
        }
      ],
      "stateMutability": "view",
      "type": "function"
    },
    {
      "inputs": [
        {
          "internalType": "address",
          "name": "target",
          "type": "address"
        },
        {
          "internalType": "uint256",
          "name": "value",
          "type": "uint256"
        },
        {
          "internalType": "bytes",
          "name": "payload",
          "type": "bytes"
        },
        {
          "components": [
            {
              "internalType": "uint8",
              "name": "v",
              "type": "uint8"
            },
            {
              "internalType": "bytes32",
              "name": "r",
              "type": "bytes32"
            },
            {
              "internalType": "bytes32",
              "name": "s",
              "type": "bytes32"
            }
          ],
          "internalType": "struct Safe.Signature[]",
          "name": "sigs",
          "type": "tuple[]"
        }
      ],
      "name": "execute",
      "outputs": [],
      "stateMutability": "payable",
      "type": "function"
    },
    {
      "inputs": [
        {
          "internalType": "address",
          "name": "target",
          "type": "address"
        },
        {
          "internalType": "uint256",
          "name": "value",
          "type": "uint256"
        },
        {
          "internalType": "bytes",
          "name": "payload",
          "type": "bytes"
        },
        {
          "components": [
            {
              "internalType": "uint8",
              "name": "v",
              "type": "uint8"
            },
            {
              "internalType": "bytes32",
              "name": "r",
              "type": "bytes32"
            },
            {
              "internalType": "bytes32",
              "name": "s",
              "type": "bytes32"
            }
          ],
          "internalType": "struct Safe.Signature[]",
          "name": "sigs",
          "type": "tuple[]"
        }
      ],
      "name": "executeTest",
      "outputs": [],
      "stateMutability": "payable",
      "type": "function"
    },
    {
      "inputs": [
        {
          "internalType": "bytes32",
          "name": "_funcSignatureHash",
          "type": "bytes32"
        },
        {
          "internalType": "address",
          "name": "_target",
          "type": "address"
        },
        {
          "internalType": "uint256",
          "name": "_amount",
          "type": "uint256"
        },
        {
          "internalType": "bytes",
          "name": "_payload",
          "type": "bytes"
        }
      ],
      "name": "getMessageHash",
      "outputs": [
        {
          "internalType": "bytes32",
          "name": "",
          "type": "bytes32"
        }
      ],
      "stateMutability": "view",
      "type": "function"
    },
    {
      "inputs": [],
      "name": "getOwners",
      "outputs": [
        {
          "internalType": "address[]",
          "name": "",
          "type": "address[]"
        }
      ],
      "stateMutability": "view",
      "type": "function"
    },
    {
      "inputs": [
        {
          "internalType": "address",
          "name": "",
          "type": "address"
        }
      ],
      "name": "isSigner",
      "outputs": [
        {
          "internalType": "bool",
          "name": "",
          "type": "bool"
        }
      ],
      "stateMutability": "view",
      "type": "function"
    },
    {
      "inputs": [],
      "name": "name",
      "outputs": [
        {
          "internalType": "string",
          "name": "",
          "type": "string"
        }
      ],
      "stateMutability": "view",
      "type": "function"
    },
    {
      "inputs": [],
      "name": "nonce",
      "outputs": [
        {
          "internalType": "uint256",
          "name": "",
          "type": "uint256"
        }
      ],
      "stateMutability": "view",
      "type": "function"
    },
    {
      "inputs": [],
      "name": "quorum",
      "outputs": [
        {
          "internalType": "uint256",
          "name": "",
          "type": "uint256"
        }
      ],
      "stateMutability": "view",
      "type": "function"
    },
    {
      "inputs": [],
      "name": "received",
      "outputs": [
        {
          "internalType": "uint256",
          "name": "",
          "type": "uint256"
        }
      ],
      "stateMutability": "view",
      "type": "function"
    },
    {
      "inputs": [
        {
          "internalType": "uint256",
          "name": "_quorum",
          "type": "uint256"
        },
        {
          "components": [
            {
              "internalType": "uint8",
              "name": "v",
              "type": "uint8"
            },
            {
              "internalType": "bytes32",
              "name": "r",
              "type": "bytes32"
            },
            {
              "internalType": "bytes32",
              "name": "s",
              "type": "bytes32"
            }
          ],
          "internalType": "struct Safe.Signature[]",
          "name": "sigs",
          "type": "tuple[]"
        }
      ],
      "name": "setQuorum",
      "outputs": [],
      "stateMutability": "payable",
      "type": "function"
    },
    {
      "inputs": [
        {
          "internalType": "address",
          "name": "signer",
          "type": "address"
        },
        {
          "internalType": "bool",
          "name": "shouldTrust",
          "type": "bool"
        },
        {
          "components": [
            {
              "internalType": "uint8",
              "name": "v",
              "type": "uint8"
            },
            {
              "internalType": "bytes32",
              "name": "r",
              "type": "bytes32"
            },
            {
              "internalType": "bytes32",
              "name": "s",
              "type": "bytes32"
            }
          ],
          "internalType": "struct Safe.Signature[]",
          "name": "sigs",
          "type": "tuple[]"
        }
      ],
      "name": "setSigner",
      "outputs": [],
      "stateMutability": "payable",
      "type": "function"
    },
    {
      "inputs": [
        {
          "internalType": "string",
          "name": "_msg",
          "type": "string"
        },
        {
          "components": [
            {
              "internalType": "uint8",
              "name": "v",
              "type": "uint8"
            },
            {
              "internalType": "bytes32",
              "name": "r",
              "type": "bytes32"
            },
            {
              "internalType": "bytes32",
              "name": "s",
              "type": "bytes32"
            }
          ],
          "internalType": "struct Safe.Signature",
          "name": "sig",
          "type": "tuple"
        }
      ],
      "name": "test",
      "outputs": [
        {
          "internalType": "address",
          "name": "",
          "type": "address"
        }
      ],
      "stateMutability": "pure",
      "type": "function"
    },
    {
      "stateMutability": "payable",
      "type": "receive"
    }
  ],
  "bytecode": {
    "object": "0x60a0604052600160005560405162001ae538038062001ae58339810160408190526200002b91620002ca565b60005b82518110156200008e57600160036000858481518110620000535762000053620003af565b6020908102919091018101516001600160a01b03168252810191909152604001600020805460ff19169115159190911790556001016200002e565b5060018190558151620000a990600490602085019062000161565b506005620000b8848262000454565b50825160208085019190912060408051808201825260018152603160f81b9084015280517f8b73c3c69bb8fe3d512ecc4cf759cc79239f7b179b0ffacaa9a75d522b39400f938101939093528201527fc89efdaa54c0f20c7adf612882df0950f5a951637e0307cdcb4c672f298b8bc660608201524660808201523060a082015260c00160408051601f1981840301815291905280516020909101206080525062000520915050565b828054828255906000526020600020908101928215620001b9579160200282015b82811115620001b957825182546001600160a01b0319166001600160a01b0390911617825560209092019160019091019062000182565b50620001c7929150620001cb565b5090565b5b80821115620001c75760008155600101620001cc565b634e487b7160e01b600052604160045260246000fd5b604051601f8201601f191681016001600160401b0381118282101715620002235762000223620001e2565b604052919050565b600082601f8301126200023d57600080fd5b815160206001600160401b038211156200025b576200025b620001e2565b8160051b6200026c828201620001f8565b92835284810182019282810190878511156200028757600080fd5b83870192505b84831015620002bf5782516001600160a01b0381168114620002af5760008081fd5b825291830191908301906200028d565b979650505050505050565b600080600060608486031215620002e057600080fd5b83516001600160401b0380821115620002f857600080fd5b818601915086601f8301126200030d57600080fd5b815181811115620003225762000322620001e2565b602062000338601f8301601f19168201620001f8565b82815289828487010111156200034d57600080fd5b60005b838110156200036d57858101830151828201840152820162000350565b5060009281018201929092528701519095509150808211156200038f57600080fd5b506200039e868287016200022b565b925050604084015190509250925092565b634e487b7160e01b600052603260045260246000fd5b600181811c90821680620003da57607f821691505b602082108103620003fb57634e487b7160e01b600052602260045260246000fd5b50919050565b601f8211156200044f57600081815260208120601f850160051c810160208610156200042a5750805b601f850160051c820191505b818110156200044b5782815560010162000436565b5050505b505050565b81516001600160401b03811115620004705762000470620001e2565b6200048881620004818454620003c5565b8462000401565b602080601f831160018114620004c05760008415620004a75750858301515b600019600386901b1c1916600185901b1785556200044b565b600085815260208120601f198616915b82811015620004f157888601518255948401946001909101908401620004d0565b5085821015620005105787850151600019600388901b60f8161c191681555b5050505050600190811b01905550565b6080516115946200055160003960008181610300015281816103e801528181610666015261098a01526115946000f3fe6080604052600436106100f75760003560e01c80637df73e271161008a578063affed0e011610059578063affed0e0146102b8578063b03e9870146102ce578063f698da25146102ee578063f99115fe1461032257600080fd5b80637df73e271461022d57806383a6deb51461026d578063858d982a14610283578063a0e67e2b1461029657600080fd5b80635ab776c4116100c65780635ab776c4146101ba5780635c7f4e54146101cf5780636157a8df146101e257806364810fe41461021a57600080fd5b806306fdde03146101035780631703a0181461012e5780632ae49a271461015257806337a33fc21461018657600080fd5b366100fe57005b600080fd5b34801561010f57600080fd5b50610118610356565b6040516101259190610f5c565b60405180910390f35b34801561013a57600080fd5b5061014460015481565b604051908152602001610125565b34801561015e57600080fd5b506101447fe8215553482e87e79e569510febbad79fcd0cb116418b7ad11fb14951df6821881565b34801561019257600080fd5b506101447f2d38a1f0ad75969000ea6dcd51396cdc874f11e8680ec292ed492eefca949dec81565b6101cd6101c8366004610ff7565b6103e4565b005b6101cd6101dd36600461105f565b610660565b3480156101ee57600080fd5b506102026101fd366004611164565b610891565b6040516001600160a01b039091168152602001610125565b6101cd61022836600461124d565b610986565b34801561023957600080fd5b5061025d6102483660046112d7565b60036020526000908152604090205460ff1681565b6040519015158152602001610125565b34801561027957600080fd5b5061014460025481565b6101cd61029136600461124d565b610c41565b3480156102a257600080fd5b506102ab610e98565b60405161012591906112f9565b3480156102c457600080fd5b5061014460005481565b3480156102da57600080fd5b506101446102e9366004611346565b610efa565b3480156102fa57600080fd5b506101447f000000000000000000000000000000000000000000000000000000000000000081565b34801561032e57600080fd5b506101447f85bf243ffaa9e85f5c47a8959fc5b10066a057617ae8358d7b990cd2a86e781481565b60058054610363906113ae565b80601f016020809104026020016040519081016040528092919081815260200182805461038f906113ae565b80156103dc5780601f106103b1576101008083540402835291602001916103dc565b820191906000526020600020905b8154815290600101906020018083116103bf57829003601f168201915b505050505081565b60007f00000000000000000000000000000000000000000000000000000000000000007fe8215553482e87e79e569510febbad79fcd0cb116418b7ad11fb14951df68218868660008081548092919061043c906113e8565b909155506040805160208101959095526001600160a01b039093169284019290925215156060830152608082015260a0016040516020818303038152906040528051906020012060405160200161049492919061140f565b60408051601f19818403018152919052805160209091012090506000805b6001548110156105eb5760006001848787858181106104d3576104d361142a565b6104e99260206060909202019081019150611440565b8888868181106104fb576104fb61142a565b905060600201602001358989878181106105175761051761142a565b9050606002016040013560405160008152602001604052604051610557949392919093845260ff9290921660208401526040830152606082015260800190565b6020604051602081039080840390855afa158015610579573d6000803e3d6000fd5b505060408051601f1901516001600160a01b03811660009081526003602052919091205490925060ff16159050806105c35750806001600160a01b0316836001600160a01b031610155b156105e15760405163274cf40160e01b815260040160405180910390fd5b91506001016104b2565b50856001600160a01b03167ffcaa24b1276bfa7dbf77797c0a984b9df924acbeaabd48cd2f1b0eca379b78fa86604051610629911515815260200190565b60405180910390a2505050506001600160a01b03919091166000908152600360205260409020805460ff1916911515919091179055565b600080547f0000000000000000000000000000000000000000000000000000000000000000907f85bf243ffaa9e85f5c47a8959fc5b10066a057617ae8358d7b990cd2a86e781490869084806106b5836113e8565b909155506040805160208101949094528301919091526060820152608001604051602081830303815290604052805190602001206040516020016106fa92919061140f565b60408051601f19818403018152919052805160209091012090506000805b6001548110156108515760006001848787858181106107395761073961142a565b61074f9260206060909202019081019150611440565b8888868181106107615761076161142a565b9050606002016020013589898781811061077d5761077d61142a565b90506060020160400135604051600081526020016040526040516107bd949392919093845260ff9290921660208401526040830152606082015260800190565b6020604051602081039080840390855afa1580156107df573d6000803e3d6000fd5b505060408051601f1901516001600160a01b03811660009081526003602052919091205490925060ff16159050806108295750806001600160a01b0316836001600160a01b031610155b156108475760405163274cf40160e01b815260040160405180910390fd5b9150600101610718565b506040518581527ff18f88786aae85a652aadb99a82462616489a33370c9bcc7b245906812ef7cd19060200160405180910390a150505060019190915550565b600080836040516020016108a5919061145b565b60408051601f198184030181529082905280516020918201207f19457468657265756d205369676e6564204d6573736167653a0a33320000000091830191909152603c820152605c01604051602081830303815290604052805190602001209050600060018285600001518660200151876040015160405160008152602001604052604051610950949392919093845260ff9290921660208401526040830152606082015260800190565b6020604051602081039080840390855afa158015610972573d6000803e3d6000fd5b5050604051601f1901519695505050505050565b60007f00000000000000000000000000000000000000000000000000000000000000007f2d38a1f0ad75969000ea6dcd51396cdc874f11e8680ec292ed492eefca949dec888888886000808154809291906109e0906113e8565b919050556040516020016109f9969594939291906114a0565b60405160208183030381529060405280519060200120604051602001610a2092919061140f565b60408051601f19818403018152919052805160209091012090506000805b600154811015610b77576000600184878785818110610a5f57610a5f61142a565b610a759260206060909202019081019150611440565b888886818110610a8757610a8761142a565b90506060020160200135898987818110610aa357610aa361142a565b9050606002016040013560405160008152602001604052604051610ae3949392919093845260ff9290921660208401526040830152606082015260800190565b6020604051602081039080840390855afa158015610b05573d6000803e3d6000fd5b505060408051601f1901516001600160a01b03811660009081526003602052919091205490925060ff1615905080610b4f5750806001600160a01b0316836001600160a01b031610155b15610b6d5760405163274cf40160e01b815260040160405180910390fd5b9150600101610a3e565b507fcaf938de11c367272220bfd1d2baa99ca46665e7bc4d85f00adb51b90fe1fa9f88888888604051610bad94939291906114e1565b60405180910390a16000886001600160a01b0316888888604051610bd2929190611513565b60006040518083038185875af1925050503d8060008114610c0f576040519150601f19603f3d011682016040523d82523d6000602084013e610c14565b606091505b5050905080610c3657604051632b3f6d1160e21b815260040160405180910390fd5b505050505050505050565b60007f2d38a1f0ad75969000ea6dcd51396cdc874f11e8680ec292ed492eefca949dec87878787600080815480929190610c7a906113e8565b91905055604051602001610c9396959493929190611523565b60408051601f198184030181529082905280516020918201207f19457468657265756d205369676e6564204d6573736167653a0a33320000000091830191909152603c820152605c01604051602081830303815290604052805190602001209050600060018285856000818110610d0c57610d0c61142a565b610d229260206060909202019081019150611440565b86866000818110610d3557610d3561142a565b9050606002016020013587876000818110610d5257610d5261142a565b9050606002016040013560405160008152602001604052604051610d92949392919093845260ff9290921660208401526040830152606082015260800190565b6020604051602081039080840390855afa158015610db4573d6000803e3d6000fd5b505060408051601f1901516001600160a01b03811660009081526003602052919091205490925060ff16159050610e4e576000886001600160a01b0316888888604051610e02929190611513565b60006040518083038185875af1925050503d8060008114610e3f576040519150601f19603f3d011682016040523d82523d6000602084013e610e44565b606091505b5050905050610e8e565b60405162461bcd60e51b81526020600482015260116024820152703e3e3e2077726f6e67206164647265737360781b604482015260640160405180910390fd5b5050505050505050565b60606004805480602002602001604051908101604052809291908181526020018280548015610ef057602002820191906000526020600020905b81546001600160a01b03168152600190910190602001808311610ed2575b5050505050905090565b60008054604051610f179188918891889188918891602001611523565b60405160208183030381529060405280519060200120905095945050505050565b60005b83811015610f53578181015183820152602001610f3b565b50506000910152565b6020815260008251806020840152610f7b816040850160208701610f38565b601f01601f19169190910160400192915050565b80356001600160a01b0381168114610fa657600080fd5b919050565b60008083601f840112610fbd57600080fd5b50813567ffffffffffffffff811115610fd557600080fd5b602083019150836020606083028501011115610ff057600080fd5b9250929050565b6000806000806060858703121561100d57600080fd5b61101685610f8f565b93506020850135801515811461102b57600080fd5b9250604085013567ffffffffffffffff81111561104757600080fd5b61105387828801610fab565b95989497509550505050565b60008060006040848603121561107457600080fd5b83359250602084013567ffffffffffffffff81111561109257600080fd5b61109e86828701610fab565b9497909650939450505050565b634e487b7160e01b600052604160045260246000fd5b604051601f8201601f1916810167ffffffffffffffff811182821017156110ea576110ea6110ab565b604052919050565b803560ff81168114610fa657600080fd5b60006060828403121561111557600080fd5b6040516060810181811067ffffffffffffffff82111715611138576111386110ab565b604052905080611147836110f2565b815260208301356020820152604083013560408201525092915050565b6000806080838503121561117757600080fd5b823567ffffffffffffffff8082111561118f57600080fd5b818501915085601f8301126111a357600080fd5b81356020828211156111b7576111b76110ab565b6111c9601f8301601f191682016110c1565b925081835287818386010111156111df57600080fd5b818185018285013760008183850101528295506111fe88828901611103565b9450505050509250929050565b60008083601f84011261121d57600080fd5b50813567ffffffffffffffff81111561123557600080fd5b602083019150836020828501011115610ff057600080fd5b6000806000806000806080878903121561126657600080fd5b61126f87610f8f565b955060208701359450604087013567ffffffffffffffff8082111561129357600080fd5b61129f8a838b0161120b565b909650945060608901359150808211156112b857600080fd5b506112c589828a01610fab565b979a9699509497509295939492505050565b6000602082840312156112e957600080fd5b6112f282610f8f565b9392505050565b6020808252825182820181905260009190848201906040850190845b8181101561133a5783516001600160a01b031683529284019291840191600101611315565b50909695505050505050565b60008060008060006080868803121561135e57600080fd5b8535945061136e60208701610f8f565b935060408601359250606086013567ffffffffffffffff81111561139157600080fd5b61139d8882890161120b565b969995985093965092949392505050565b600181811c908216806113c257607f821691505b6020821081036113e257634e487b7160e01b600052602260045260246000fd5b50919050565b60006001820161140857634e487b7160e01b600052601160045260246000fd5b5060010190565b61190160f01b81526002810192909252602282015260420190565b634e487b7160e01b600052603260045260246000fd5b60006020828403121561145257600080fd5b6112f2826110f2565b6000825161146d818460208701610f38565b9190910192915050565b81835281816020850137506000828201602090810191909152601f909101601f19169091010190565b86815260018060a01b038616602082015284604082015260a0606082015260006114ce60a083018587611477565b9050826080830152979650505050505050565b60018060a01b0385168152836020820152606060408201526000611509606083018486611477565b9695505050505050565b8183823760009101908152919050565b8681526bffffffffffffffffffffffff198660601b16602082015284603482015282846054830137605492019182015260740194935050505056fea2646970667358221220e07857e0cea4431349d2ffc9d547a71d9d0e543cf173d1a7aa0c641a4554faf664736f6c63430008110033",
    "linkReferences": {}
  },
  "methodIdentifiers": {
    "EXECUTE_HASH()": "37a33fc2",
    "QUORUM_HASH()": "f99115fe",
    "SIGNER_HASH()": "2ae49a27",
    "domainSeparator()": "f698da25",
    "execute(address,uint256,bytes,(uint8,bytes32,bytes32)[])": "64810fe4",
    "executeTest(address,uint256,bytes,(uint8,bytes32,bytes32)[])": "858d982a",
    "getMessageHash(bytes32,address,uint256,bytes)": "b03e9870",
    "getOwners()": "a0e67e2b",
    "isSigner(address)": "7df73e27",
    "name()": "06fdde03",
    "nonce()": "affed0e0",
    "quorum()": "1703a018",
    "received()": "83a6deb5",
    "setQuorum(uint256,(uint8,bytes32,bytes32)[])": "5c7f4e54",
    "setSigner(address,bool,(uint8,bytes32,bytes32)[])": "5ab776c4",
    "test(string,(uint8,bytes32,bytes32))": "6157a8df"
  },
  "id": 15
}