{
  "abi": [
    {
      "inputs": [
        {
          "internalType": "string",
          "name": "_name",
          "type": "string"
        },
        {
          "internalType": "address[]",
          "name": "_signers",
          "type": "address[]"
        },
        {
          "internalType": "uint256",
          "name": "_quorum",
          "type": "uint256"
        }
      ],
      "stateMutability": "payable",
      "type": "constructor"
    },
    {
      "inputs": [],
      "name": "ExecutionFailed",
      "type": "error"
    },
    {
      "inputs": [],
      "name": "InvalidSignatures",
      "type": "error"
    },
    {
      "anonymous": false,
      "inputs": [
        {
          "indexed": false,
          "internalType": "address",
          "name": "target",
          "type": "address"
        },
        {
          "indexed": false,
          "internalType": "uint256",
          "name": "value",
          "type": "uint256"
        },
        {
          "indexed": false,
          "internalType": "bytes",
          "name": "payload",
          "type": "bytes"
        }
      ],
      "name": "Executed",
      "type": "event"
    },
    {
      "anonymous": false,
      "inputs": [
        {
          "indexed": false,
          "internalType": "uint256",
          "name": "newQuorum",
          "type": "uint256"
        }
      ],
      "name": "QuorumUpdated",
      "type": "event"
    },
    {
      "anonymous": false,
      "inputs": [
        {
          "indexed": true,
          "internalType": "address",
          "name": "signer",
          "type": "address"
        },
        {
          "indexed": false,
          "internalType": "bool",
          "name": "shouldTrust",
          "type": "bool"
        }
      ],
      "name": "SignerUpdated",
      "type": "event"
    },
    {
      "inputs": [],
      "name": "EXECUTE_HASH",
      "outputs": [
        {
          "internalType": "bytes32",
          "name": "",
          "type": "bytes32"
        }
      ],
      "stateMutability": "view",
      "type": "function"
    },
    {
      "inputs": [],
      "name": "QUORUM_HASH",
      "outputs": [
        {
          "internalType": "bytes32",
          "name": "",
          "type": "bytes32"
        }
      ],
      "stateMutability": "view",
      "type": "function"
    },
    {
      "inputs": [],
      "name": "SIGNER_HASH",
      "outputs": [
        {
          "internalType": "bytes32",
          "name": "",
          "type": "bytes32"
        }
      ],
      "stateMutability": "view",
      "type": "function"
    },
    {
      "inputs": [],
      "name": "domainSeparator",
      "outputs": [
        {
          "internalType": "bytes32",
          "name": "",
          "type": "bytes32"
        }
      ],
      "stateMutability": "view",
      "type": "function"
    },
    {
      "inputs": [
        {
          "internalType": "address",
          "name": "target",
          "type": "address"
        },
        {
          "internalType": "uint256",
          "name": "value",
          "type": "uint256"
        },
        {
          "internalType": "bytes",
          "name": "payload",
          "type": "bytes"
        },
        {
          "components": [
            {
              "internalType": "uint8",
              "name": "v",
              "type": "uint8"
            },
            {
              "internalType": "bytes32",
              "name": "r",
              "type": "bytes32"
            },
            {
              "internalType": "bytes32",
              "name": "s",
              "type": "bytes32"
            }
          ],
          "internalType": "struct Safe.Signature[]",
          "name": "sigs",
          "type": "tuple[]"
        }
      ],
      "name": "execute",
      "outputs": [],
      "stateMutability": "payable",
      "type": "function"
    },
    {
      "inputs": [
        {
          "internalType": "address",
          "name": "target",
          "type": "address"
        },
        {
          "internalType": "uint256",
          "name": "value",
          "type": "uint256"
        },
        {
          "internalType": "bytes",
          "name": "payload",
          "type": "bytes"
        },
        {
          "components": [
            {
              "internalType": "uint8",
              "name": "v",
              "type": "uint8"
            },
            {
              "internalType": "bytes32",
              "name": "r",
              "type": "bytes32"
            },
            {
              "internalType": "bytes32",
              "name": "s",
              "type": "bytes32"
            }
          ],
          "internalType": "struct Safe.Signature[]",
          "name": "sigs",
          "type": "tuple[]"
        }
      ],
      "name": "executeTest",
      "outputs": [],
      "stateMutability": "payable",
      "type": "function"
    },
    {
      "inputs": [
        {
          "internalType": "bytes32",
          "name": "_funcSignatureHash",
          "type": "bytes32"
        },
        {
          "internalType": "address",
          "name": "_target",
          "type": "address"
        },
        {
          "internalType": "uint256",
          "name": "_amount",
          "type": "uint256"
        },
        {
          "internalType": "bytes",
          "name": "_payload",
          "type": "bytes"
        }
      ],
      "name": "getMessageHash",
      "outputs": [
        {
          "internalType": "bytes32",
          "name": "",
          "type": "bytes32"
        }
      ],
      "stateMutability": "view",
      "type": "function"
    },
    {
      "inputs": [],
      "name": "getOwners",
      "outputs": [
        {
          "internalType": "address[]",
          "name": "",
          "type": "address[]"
        }
      ],
      "stateMutability": "view",
      "type": "function"
    },
    {
      "inputs": [
        {
          "internalType": "address",
          "name": "",
          "type": "address"
        }
      ],
      "name": "isSigner",
      "outputs": [
        {
          "internalType": "bool",
          "name": "",
          "type": "bool"
        }
      ],
      "stateMutability": "view",
      "type": "function"
    },
    {
      "inputs": [],
      "name": "name",
      "outputs": [
        {
          "internalType": "string",
          "name": "",
          "type": "string"
        }
      ],
      "stateMutability": "view",
      "type": "function"
    },
    {
      "inputs": [],
      "name": "nonce",
      "outputs": [
        {
          "internalType": "uint256",
          "name": "",
          "type": "uint256"
        }
      ],
      "stateMutability": "view",
      "type": "function"
    },
    {
      "inputs": [],
      "name": "quorum",
      "outputs": [
        {
          "internalType": "uint256",
          "name": "",
          "type": "uint256"
        }
      ],
      "stateMutability": "view",
      "type": "function"
    },
    {
      "inputs": [],
      "name": "received",
      "outputs": [
        {
          "internalType": "uint256",
          "name": "",
          "type": "uint256"
        }
      ],
      "stateMutability": "view",
      "type": "function"
    },
    {
      "inputs": [
        {
          "internalType": "uint256",
          "name": "_quorum",
          "type": "uint256"
        },
        {
          "components": [
            {
              "internalType": "uint8",
              "name": "v",
              "type": "uint8"
            },
            {
              "internalType": "bytes32",
              "name": "r",
              "type": "bytes32"
            },
            {
              "internalType": "bytes32",
              "name": "s",
              "type": "bytes32"
            }
          ],
          "internalType": "struct Safe.Signature[]",
          "name": "sigs",
          "type": "tuple[]"
        }
      ],
      "name": "setQuorum",
      "outputs": [],
      "stateMutability": "payable",
      "type": "function"
    },
    {
      "inputs": [
        {
          "internalType": "address",
          "name": "signer",
          "type": "address"
        },
        {
          "internalType": "bool",
          "name": "shouldTrust",
          "type": "bool"
        },
        {
          "components": [
            {
              "internalType": "uint8",
              "name": "v",
              "type": "uint8"
            },
            {
              "internalType": "bytes32",
              "name": "r",
              "type": "bytes32"
            },
            {
              "internalType": "bytes32",
              "name": "s",
              "type": "bytes32"
            }
          ],
          "internalType": "struct Safe.Signature[]",
          "name": "sigs",
          "type": "tuple[]"
        }
      ],
      "name": "setSigner",
      "outputs": [],
      "stateMutability": "payable",
      "type": "function"
    },
    {
      "stateMutability": "payable",
      "type": "receive"
    }
  ],
  "bytecode": {
    "object": "0x60a06040526001600055604051620017e7380380620017e78339810160408190526200002b91620002ca565b60005b82518110156200008e57600160036000858481518110620000535762000053620003af565b6020908102919091018101516001600160a01b03168252810191909152604001600020805460ff19169115159190911790556001016200002e565b5060018190558151620000a990600490602085019062000161565b506005620000b8848262000454565b50825160208085019190912060408051808201825260018152603160f81b9084015280517f8b73c3c69bb8fe3d512ecc4cf759cc79239f7b179b0ffacaa9a75d522b39400f938101939093528201527fc89efdaa54c0f20c7adf612882df0950f5a951637e0307cdcb4c672f298b8bc660608201524660808201523060a082015260c00160408051601f1981840301815291905280516020909101206080525062000520915050565b828054828255906000526020600020908101928215620001b9579160200282015b82811115620001b957825182546001600160a01b0319166001600160a01b0390911617825560209092019160019091019062000182565b50620001c7929150620001cb565b5090565b5b80821115620001c75760008155600101620001cc565b634e487b7160e01b600052604160045260246000fd5b604051601f8201601f191681016001600160401b0381118282101715620002235762000223620001e2565b604052919050565b600082601f8301126200023d57600080fd5b815160206001600160401b038211156200025b576200025b620001e2565b8160051b6200026c828201620001f8565b92835284810182019282810190878511156200028757600080fd5b83870192505b84831015620002bf5782516001600160a01b0381168114620002af5760008081fd5b825291830191908301906200028d565b979650505050505050565b600080600060608486031215620002e057600080fd5b83516001600160401b0380821115620002f857600080fd5b818601915086601f8301126200030d57600080fd5b815181811115620003225762000322620001e2565b602062000338601f8301601f19168201620001f8565b82815289828487010111156200034d57600080fd5b60005b838110156200036d57858101830151828201840152820162000350565b5060009281018201929092528701519095509150808211156200038f57600080fd5b506200039e868287016200022b565b925050604084015190509250925092565b634e487b7160e01b600052603260045260246000fd5b600181811c90821680620003da57607f821691505b602082108103620003fb57634e487b7160e01b600052602260045260246000fd5b50919050565b601f8211156200044f57600081815260208120601f850160051c810160208610156200042a5750805b601f850160051c820191505b818110156200044b5782815560010162000436565b5050505b505050565b81516001600160401b03811115620004705762000470620001e2565b6200048881620004818454620003c5565b8462000401565b602080601f831160018114620004c05760008415620004a75750858301515b600019600386901b1c1916600185901b1785556200044b565b600085815260208120601f198616915b82811015620004f157888601518255948401946001909101908401620004d0565b5085821015620005105787850151600019600388901b60f8161c191681555b5050505050600190811b01905550565b60805161129d6200054a600039600081816102bd015281816103a50152610639015261129d6000f3fe6080604052600436106100ec5760003560e01c80637df73e271161008a578063affed0e011610059578063affed0e014610275578063b03e98701461028b578063f698da25146102ab578063f99115fe146102df57600080fd5b80637df73e27146101ea57806383a6deb51461022a578063858d982a14610240578063a0e67e2b1461025357600080fd5b806337a33fc2116100c657806337a33fc21461017b5780635ab776c4146101af5780635c7f4e54146101c457806364810fe4146101d757600080fd5b806306fdde03146100f85780631703a018146101235780632ae49a271461014757600080fd5b366100f357005b600080fd5b34801561010457600080fd5b5061010d610313565b60405161011a9190610e2d565b60405180910390f35b34801561012f57600080fd5b5061013960015481565b60405190815260200161011a565b34801561015357600080fd5b506101397fe8215553482e87e79e569510febbad79fcd0cb116418b7ad11fb14951df6821881565b34801561018757600080fd5b506101397f2d38a1f0ad75969000ea6dcd51396cdc874f11e8680ec292ed492eefca949dec81565b6101c26101bd366004610ee3565b6103a1565b005b6101c26101d2366004610f4b565b610633565b6101c26101e5366004610fd9565b61087a565b3480156101f657600080fd5b5061021a610205366004611063565b60036020526000908152604090205460ff1681565b604051901515815260200161011a565b34801561023657600080fd5b5061013960025481565b6101c261024e366004610fd9565b610b36565b34801561025f57600080fd5b50610268610d8d565b60405161011a9190611085565b34801561028157600080fd5b5061013960005481565b34801561029757600080fd5b506101396102a63660046110d2565b610def565b3480156102b757600080fd5b506101397f000000000000000000000000000000000000000000000000000000000000000081565b3480156102eb57600080fd5b506101397f85bf243ffaa9e85f5c47a8959fc5b10066a057617ae8358d7b990cd2a86e781481565b600580546103209061113a565b80601f016020809104026020016040519081016040528092919081815260200182805461034c9061113a565b80156103995780601f1061036e57610100808354040283529160200191610399565b820191906000526020600020905b81548152906001019060200180831161037c57829003601f168201915b505050505081565b60007f00000000000000000000000000000000000000000000000000000000000000007fe8215553482e87e79e569510febbad79fcd0cb116418b7ad11fb14951df6821886866000808154809291906103f990611174565b909155506040805160208101959095526001600160a01b039093169284019290925215156060830152608082015260a0016040516020818303038152906040528051906020012060405160200161046792919061190160f01b81526002810192909252602282015260420190565b60408051601f19818403018152919052805160209091012090506000805b6001548110156105be5760006001848787858181106104a6576104a661119b565b6104bc92602060609092020190810191506111b1565b8888868181106104ce576104ce61119b565b905060600201602001358989878181106104ea576104ea61119b565b905060600201604001356040516000815260200160405260405161052a949392919093845260ff9290921660208401526040830152606082015260800190565b6020604051602081039080840390855afa15801561054c573d6000803e3d6000fd5b505060408051601f1901516001600160a01b03811660009081526003602052919091205490925060ff16159050806105965750806001600160a01b0316836001600160a01b031610155b156105b45760405163274cf40160e01b815260040160405180910390fd5b9150600101610485565b50856001600160a01b03167ffcaa24b1276bfa7dbf77797c0a984b9df924acbeaabd48cd2f1b0eca379b78fa866040516105fc911515815260200190565b60405180910390a2505050506001600160a01b03919091166000908152600360205260409020805460ff1916911515919091179055565b600080547f0000000000000000000000000000000000000000000000000000000000000000907f85bf243ffaa9e85f5c47a8959fc5b10066a057617ae8358d7b990cd2a86e7814908690848061068883611174565b909155506040805160208101949094528301919091526060820152608001604051602081830303815290604052805190602001206040516020016106e392919061190160f01b81526002810192909252602282015260420190565b60408051601f19818403018152919052805160209091012090506000805b60015481101561083a5760006001848787858181106107225761072261119b565b61073892602060609092020190810191506111b1565b88888681811061074a5761074a61119b565b905060600201602001358989878181106107665761076661119b565b90506060020160400135604051600081526020016040526040516107a6949392919093845260ff9290921660208401526040830152606082015260800190565b6020604051602081039080840390855afa1580156107c8573d6000803e3d6000fd5b505060408051601f1901516001600160a01b03811660009081526003602052919091205490925060ff16159050806108125750806001600160a01b0316836001600160a01b031610155b156108305760405163274cf40160e01b815260040160405180910390fd5b9150600101610701565b506040518581527ff18f88786aae85a652aadb99a82462616489a33370c9bcc7b245906812ef7cd19060200160405180910390a150505060019190915550565b60007f2d38a1f0ad75969000ea6dcd51396cdc874f11e8680ec292ed492eefca949dec878787876000808154809291906108b390611174565b919050556040516020016108cc969594939291906111d4565b60408051601f198184030181529082905280516020918201207f19457468657265756d205369676e6564204d6573736167653a0a33320000000091830191909152603c820152605c0160408051601f19818403018152919052805160209091012090506000805b600154811015610a6c5760006001848787858181106109545761095461119b565b61096a92602060609092020190810191506111b1565b88888681811061097c5761097c61119b565b905060600201602001358989878181106109985761099861119b565b90506060020160400135604051600081526020016040526040516109d8949392919093845260ff9290921660208401526040830152606082015260800190565b6020604051602081039080840390855afa1580156109fa573d6000803e3d6000fd5b505060408051601f1901516001600160a01b03811660009081526003602052919091205490925060ff1615905080610a445750806001600160a01b0316836001600160a01b031610155b15610a625760405163274cf40160e01b815260040160405180910390fd5b9150600101610933565b507fcaf938de11c367272220bfd1d2baa99ca46665e7bc4d85f00adb51b90fe1fa9f88888888604051610aa2949392919061120f565b60405180910390a16000886001600160a01b0316888888604051610ac7929190611257565b60006040518083038185875af1925050503d8060008114610b04576040519150601f19603f3d011682016040523d82523d6000602084013e610b09565b606091505b5050905080610b2b57604051632b3f6d1160e21b815260040160405180910390fd5b505050505050505050565b60007f2d38a1f0ad75969000ea6dcd51396cdc874f11e8680ec292ed492eefca949dec87878787600080815480929190610b6f90611174565b91905055604051602001610b88969594939291906111d4565b60408051601f198184030181529082905280516020918201207f19457468657265756d205369676e6564204d6573736167653a0a33320000000091830191909152603c820152605c01604051602081830303815290604052805190602001209050600060018285856000818110610c0157610c0161119b565b610c1792602060609092020190810191506111b1565b86866000818110610c2a57610c2a61119b565b9050606002016020013587876000818110610c4757610c4761119b565b9050606002016040013560405160008152602001604052604051610c87949392919093845260ff9290921660208401526040830152606082015260800190565b6020604051602081039080840390855afa158015610ca9573d6000803e3d6000fd5b505060408051601f1901516001600160a01b03811660009081526003602052919091205490925060ff16159050610d43576000886001600160a01b0316888888604051610cf7929190611257565b60006040518083038185875af1925050503d8060008114610d34576040519150601f19603f3d011682016040523d82523d6000602084013e610d39565b606091505b5050905050610d83565b60405162461bcd60e51b81526020600482015260116024820152703e3e3e2077726f6e67206164647265737360781b604482015260640160405180910390fd5b5050505050505050565b60606004805480602002602001604051908101604052809291908181526020018280548015610de557602002820191906000526020600020905b81546001600160a01b03168152600190910190602001808311610dc7575b5050505050905090565b60008054604051610e0c91889188918891889188916020016111d4565b60405160208183030381529060405280519060200120905095945050505050565b600060208083528351808285015260005b81811015610e5a57858101830151858201604001528201610e3e565b506000604082860101526040601f19601f8301168501019250505092915050565b80356001600160a01b0381168114610e9257600080fd5b919050565b60008083601f840112610ea957600080fd5b50813567ffffffffffffffff811115610ec157600080fd5b602083019150836020606083028501011115610edc57600080fd5b9250929050565b60008060008060608587031215610ef957600080fd5b610f0285610e7b565b935060208501358015158114610f1757600080fd5b9250604085013567ffffffffffffffff811115610f3357600080fd5b610f3f87828801610e97565b95989497509550505050565b600080600060408486031215610f6057600080fd5b83359250602084013567ffffffffffffffff811115610f7e57600080fd5b610f8a86828701610e97565b9497909650939450505050565b60008083601f840112610fa957600080fd5b50813567ffffffffffffffff811115610fc157600080fd5b602083019150836020828501011115610edc57600080fd5b60008060008060008060808789031215610ff257600080fd5b610ffb87610e7b565b955060208701359450604087013567ffffffffffffffff8082111561101f57600080fd5b61102b8a838b01610f97565b9096509450606089013591508082111561104457600080fd5b5061105189828a01610e97565b979a9699509497509295939492505050565b60006020828403121561107557600080fd5b61107e82610e7b565b9392505050565b6020808252825182820181905260009190848201906040850190845b818110156110c65783516001600160a01b0316835292840192918401916001016110a1565b50909695505050505050565b6000806000806000608086880312156110ea57600080fd5b853594506110fa60208701610e7b565b935060408601359250606086013567ffffffffffffffff81111561111d57600080fd5b61112988828901610f97565b969995985093965092949392505050565b600181811c9082168061114e57607f821691505b60208210810361116e57634e487b7160e01b600052602260045260246000fd5b50919050565b60006001820161119457634e487b7160e01b600052601160045260246000fd5b5060010190565b634e487b7160e01b600052603260045260246000fd5b6000602082840312156111c357600080fd5b813560ff8116811461107e57600080fd5b8681526bffffffffffffffffffffffff198660601b166020820152846034820152828460548301376054920191820152607401949350505050565b6001600160a01b0385168152602081018490526060604082018190528101829052818360808301376000818301608090810191909152601f909201601f191601019392505050565b818382376000910190815291905056fea264697066735822122091bed4bb389eb594efaf70d42c5fc9e3a5c97bc37fafad53db960754db00a5f664736f6c63430008110033",
    "linkReferences": {}
  },
  "methodIdentifiers": {
    "EXECUTE_HASH()": "37a33fc2",
    "QUORUM_HASH()": "f99115fe",
    "SIGNER_HASH()": "2ae49a27",
    "domainSeparator()": "f698da25",
    "execute(address,uint256,bytes,(uint8,bytes32,bytes32)[])": "64810fe4",
    "executeTest(address,uint256,bytes,(uint8,bytes32,bytes32)[])": "858d982a",
    "getMessageHash(bytes32,address,uint256,bytes)": "b03e9870",
    "getOwners()": "a0e67e2b",
    "isSigner(address)": "7df73e27",
    "name()": "06fdde03",
    "nonce()": "affed0e0",
    "quorum()": "1703a018",
    "received()": "83a6deb5",
    "setQuorum(uint256,(uint8,bytes32,bytes32)[])": "5c7f4e54",
    "setSigner(address,bool,(uint8,bytes32,bytes32)[])": "5ab776c4"
  },
  "id": 15
}