{
  "abi": [
    {
      "anonymous": false,
      "inputs": [
        {
          "indexed": false,
          "internalType": "address",
          "name": "creator",
          "type": "address"
        },
        {
          "indexed": false,
          "internalType": "address",
          "name": "safe",
          "type": "address"
        }
      ],
      "name": "SafeCreation",
      "type": "event"
    },
    {
      "inputs": [
        {
          "internalType": "string",
          "name": "_name",
          "type": "string"
        },
        {
          "internalType": "address[]",
          "name": "_signers",
          "type": "address[]"
        },
        {
          "internalType": "uint256",
          "name": "_quorum",
          "type": "uint256"
        }
      ],
      "name": "createSafe",
      "outputs": [
        {
          "internalType": "address",
          "name": "",
          "type": "address"
        }
      ],
      "stateMutability": "nonpayable",
      "type": "function"
    },
    {
      "inputs": [
        {
          "internalType": "address",
          "name": "addr",
          "type": "address"
        }
      ],
      "name": "getSafes",
      "outputs": [
        {
          "components": [
            {
              "internalType": "string",
              "name": "name",
              "type": "string"
            },
            {
              "internalType": "address",
              "name": "addr",
              "type": "address"
            }
          ],
          "internalType": "struct SafeFactory.SafeSample[]",
          "name": "",
          "type": "tuple[]"
        }
      ],
      "stateMutability": "view",
      "type": "function"
    },
    {
      "inputs": [
        {
          "internalType": "address",
          "name": "creator",
          "type": "address"
        }
      ],
      "name": "getSafesCount",
      "outputs": [
        {
          "internalType": "uint256",
          "name": "",
          "type": "uint256"
        }
      ],
      "stateMutability": "view",
      "type": "function"
    },
    {
      "inputs": [
        {
          "internalType": "address",
          "name": "",
          "type": "address"
        },
        {
          "internalType": "address",
          "name": "",
          "type": "address"
        }
      ],
      "name": "hasSafe",
      "outputs": [
        {
          "internalType": "bool",
          "name": "",
          "type": "bool"
        }
      ],
      "stateMutability": "view",
      "type": "function"
    },
    {
      "inputs": [
        {
          "internalType": "address",
          "name": "",
          "type": "address"
        }
      ],
      "name": "isSafe",
      "outputs": [
        {
          "internalType": "bool",
          "name": "",
          "type": "bool"
        }
      ],
      "stateMutability": "view",
      "type": "function"
    },
    {
      "inputs": [
        {
          "internalType": "address",
          "name": "",
          "type": "address"
        },
        {
          "internalType": "uint256",
          "name": "",
          "type": "uint256"
        }
      ],
      "name": "safes",
      "outputs": [
        {
          "internalType": "string",
          "name": "name",
          "type": "string"
        },
        {
          "internalType": "address",
          "name": "addr",
          "type": "address"
        }
      ],
      "stateMutability": "view",
      "type": "function"
    }
  ],
  "bytecode": {
    "object": "0x608060405234801561001057600080fd5b5061217c806100206000396000f3fe60806040523480156200001157600080fd5b50600436106200006a5760003560e01c80632165e073146200006f57806358142a7e146200009f5780636112092914620000e1578063700f07b41462000107578063769a28ac1462000137578063f627e464146200015d575b600080fd5b6200008662000080366004620006a3565b62000198565b6040516200009692919062000718565b60405180910390f35b620000d0620000b036600462000744565b600260209081526000928352604080842090915290825290205460ff1681565b604051901515815260200162000096565b620000f8620000f23660046200077c565b62000273565b604051620000969190620007a1565b6200011e6200011836600462000900565b62000395565b6040516001600160a01b03909116815260200162000096565b620000d0620001483660046200077c565b60016020526000908152604090205460ff1681565b620001896200016e3660046200077c565b6001600160a01b031660009081526020819052604090205490565b60405190815260200162000096565b60006020528160005260406000208181548110620001b557600080fd5b906000526020600020906002020160009150915050806000018054620001db90620009cd565b80601f01602080910402602001604051908101604052809291908181526020018280546200020990620009cd565b80156200025a5780601f106200022e576101008083540402835291602001916200025a565b820191906000526020600020905b8154815290600101906020018083116200023c57829003601f168201915b505050600190930154919250506001600160a01b031682565b6001600160a01b038116600090815260208181526040808320805482518185028101850190935280835260609492939192909184015b828210156200038a5783829060005260206000209060020201604051806040016040529081600082018054620002df90620009cd565b80601f01602080910402602001604051908101604052809291908181526020018280546200030d90620009cd565b80156200035e5780601f1062000332576101008083540402835291602001916200035e565b820191906000526020600020905b8154815290600101906020018083116200034057829003601f168201915b50505091835250506001918201546001600160a01b0316602091820152918352929092019101620002a9565b505050509050919050565b600080848484604051620003a99062000678565b620003b79392919062000a09565b604051809103906000f080158015620003d4573d6000803e3d6000fd5b503360009081526020818152604080832081518083019092528982526001600160a01b038516828401528054600181018255908452919092208251939450849360029092020190819062000429908262000ac9565b50602091820151600191820180546001600160a01b0319166001600160a01b039283161790553360009081526002845260408082209286168252919093528220805460ff191690911790555b85518110156200060f576002600087838151811062000498576200049862000b96565b6020908102919091018101516001600160a01b0390811683528282019390935260409182016000908120938616815292905290205460ff16620005fa57600080878381518110620004ed57620004ed62000b96565b6020908102919091018101516001600160a01b039081168352828201939093526040918201600090812083518085019094528b84529386168383015283546001810185559381522081519192600202019081906200054c908262000ac9565b5060208201518160010160006101000a8154816001600160a01b0302191690836001600160a01b03160217905550505060016002600088848151811062000597576200059762000b96565b60200260200101516001600160a01b03166001600160a01b031681526020019081526020016000206000846001600160a01b03166001600160a01b0316815260200190815260200160002060006101000a81548160ff0219169083151502179055505b80620006068162000bac565b91505062000475565b506001600160a01b038116600081815260016020818152604092839020805460ff19169092179091558151338152908101929092527f7b0614fd48ae3b07c473a1f0c96d62b41179c80330942baf190b2022e2670b46910160405180910390a195945050505050565b6115728062000bd583390190565b80356001600160a01b03811681146200069e57600080fd5b919050565b60008060408385031215620006b757600080fd5b620006c28362000686565b946020939093013593505050565b6000815180845260005b81811015620006f857602081850181015186830182015201620006da565b506000602082860101526020601f19601f83011685010191505092915050565b6040815260006200072d6040830185620006d0565b905060018060a01b03831660208301529392505050565b600080604083850312156200075857600080fd5b620007638362000686565b9150620007736020840162000686565b90509250929050565b6000602082840312156200078f57600080fd5b6200079a8262000686565b9392505050565b60006020808301818452808551808352604092508286019150828160051b87010184880160005b838110156200081657888303603f1901855281518051878552620007ef88860182620006d0565b918901516001600160a01b03169489019490945294870194925090860190600101620007c8565b509098975050505050505050565b634e487b7160e01b600052604160045260246000fd5b604051601f8201601f1916810167ffffffffffffffff8111828210171562000866576200086662000824565b604052919050565b600082601f8301126200088057600080fd5b8135602067ffffffffffffffff8211156200089f576200089f62000824565b8160051b620008b08282016200083a565b9283528481018201928281019087851115620008cb57600080fd5b83870192505b84831015620008f557620008e58362000686565b82529183019190830190620008d1565b979650505050505050565b6000806000606084860312156200091657600080fd5b833567ffffffffffffffff808211156200092f57600080fd5b818601915086601f8301126200094457600080fd5b81356020828211156200095b576200095b62000824565b6200096f601f8301601f191682016200083a565b82815289828487010111156200098457600080fd5b82828601838301376000928101820192909252909550860135915080821115620009ad57600080fd5b50620009bc868287016200086e565b925050604084013590509250925092565b600181811c90821680620009e257607f821691505b60208210810362000a0357634e487b7160e01b600052602260045260246000fd5b50919050565b60608152600062000a1e6060830186620006d0565b82810360208481019190915285518083528682019282019060005b8181101562000a605784516001600160a01b03168352938301939183019160010162000a39565b5050809350505050826040830152949350505050565b601f82111562000ac457600081815260208120601f850160051c8101602086101562000a9f5750805b601f850160051c820191505b8181101562000ac05782815560010162000aab565b5050505b505050565b815167ffffffffffffffff81111562000ae65762000ae662000824565b62000afe8162000af78454620009cd565b8462000a76565b602080601f83116001811462000b36576000841562000b1d5750858301515b600019600386901b1c1916600185901b17855562000ac0565b600085815260208120601f198616915b8281101562000b675788860151825594840194600190910190840162000b46565b508582101562000b865787850151600019600388901b60f8161c191681555b5050505050600190811b01905550565b634e487b7160e01b600052603260045260246000fd5b60006001820162000bcd57634e487b7160e01b600052601160045260246000fd5b506001019056fe60a0604052600160005560405162001572380380620015728339810160408190526200002b91620002ca565b60005b82518110156200008e57600160036000858481518110620000535762000053620003af565b6020908102919091018101516001600160a01b03168252810191909152604001600020805460ff19169115159190911790556001016200002e565b5060018190558151620000a990600490602085019062000161565b506005620000b8848262000454565b50825160208085019190912060408051808201825260018152603160f81b9084015280517f8b73c3c69bb8fe3d512ecc4cf759cc79239f7b179b0ffacaa9a75d522b39400f938101939093528201527fc89efdaa54c0f20c7adf612882df0950f5a951637e0307cdcb4c672f298b8bc660608201524660808201523060a082015260c00160408051601f1981840301815291905280516020909101206080525062000520915050565b828054828255906000526020600020908101928215620001b9579160200282015b82811115620001b957825182546001600160a01b0319166001600160a01b0390911617825560209092019160019091019062000182565b50620001c7929150620001cb565b5090565b5b80821115620001c75760008155600101620001cc565b634e487b7160e01b600052604160045260246000fd5b604051601f8201601f191681016001600160401b0381118282101715620002235762000223620001e2565b604052919050565b600082601f8301126200023d57600080fd5b815160206001600160401b038211156200025b576200025b620001e2565b8160051b6200026c828201620001f8565b92835284810182019282810190878511156200028757600080fd5b83870192505b84831015620002bf5782516001600160a01b0381168114620002af5760008081fd5b825291830191908301906200028d565b979650505050505050565b600080600060608486031215620002e057600080fd5b83516001600160401b0380821115620002f857600080fd5b818601915086601f8301126200030d57600080fd5b815181811115620003225762000322620001e2565b602062000338601f8301601f19168201620001f8565b82815289828487010111156200034d57600080fd5b60005b838110156200036d57858101830151828201840152820162000350565b5060009281018201929092528701519095509150808211156200038f57600080fd5b506200039e868287016200022b565b925050604084015190509250925092565b634e487b7160e01b600052603260045260246000fd5b600181811c90821680620003da57607f821691505b602082108103620003fb57634e487b7160e01b600052602260045260246000fd5b50919050565b601f8211156200044f57600081815260208120601f850160051c810160208610156200042a5750805b601f850160051c820191505b818110156200044b5782815560010162000436565b5050505b505050565b81516001600160401b03811115620004705762000470620001e2565b6200048881620004818454620003c5565b8462000401565b602080601f831160018114620004c05760008415620004a75750858301515b600019600386901b1c1916600185901b1785556200044b565b600085815260208120601f198616915b82811015620004f157888601518255948401946001909101908401620004d0565b5085821015620005105787850151600019600388901b60f8161c191681555b5050505050600190811b01905550565b6080516110286200054a6000396000818161029f01528181610387015261061b01526110286000f3fe6080604052600436106100e15760003560e01c80637df73e271161007f578063affed0e011610059578063affed0e014610257578063b03e98701461026d578063f698da251461028d578063f99115fe146102c157600080fd5b80637df73e27146101df57806383a6deb51461021f578063a0e67e2b1461023557600080fd5b806337a33fc2116100bb57806337a33fc2146101705780635ab776c4146101a45780635c7f4e54146101b957806364810fe4146101cc57600080fd5b806306fdde03146100ed5780631703a018146101185780632ae49a271461013c57600080fd5b366100e857005b600080fd5b3480156100f957600080fd5b506101026102f5565b60405161010f9190610bb8565b60405180910390f35b34801561012457600080fd5b5061012e60015481565b60405190815260200161010f565b34801561014857600080fd5b5061012e7fe8215553482e87e79e569510febbad79fcd0cb116418b7ad11fb14951df6821881565b34801561017c57600080fd5b5061012e7f2d38a1f0ad75969000ea6dcd51396cdc874f11e8680ec292ed492eefca949dec81565b6101b76101b2366004610c6e565b610383565b005b6101b76101c7366004610cd6565b610615565b6101b76101da366004610d64565b61085c565b3480156101eb57600080fd5b5061020f6101fa366004610dee565b60036020526000908152604090205460ff1681565b604051901515815260200161010f565b34801561022b57600080fd5b5061012e60025481565b34801561024157600080fd5b5061024a610b18565b60405161010f9190610e10565b34801561026357600080fd5b5061012e60005481565b34801561027957600080fd5b5061012e610288366004610e5d565b610b7a565b34801561029957600080fd5b5061012e7f000000000000000000000000000000000000000000000000000000000000000081565b3480156102cd57600080fd5b5061012e7f85bf243ffaa9e85f5c47a8959fc5b10066a057617ae8358d7b990cd2a86e781481565b6005805461030290610ec5565b80601f016020809104026020016040519081016040528092919081815260200182805461032e90610ec5565b801561037b5780601f106103505761010080835404028352916020019161037b565b820191906000526020600020905b81548152906001019060200180831161035e57829003601f168201915b505050505081565b60007f00000000000000000000000000000000000000000000000000000000000000007fe8215553482e87e79e569510febbad79fcd0cb116418b7ad11fb14951df6821886866000808154809291906103db90610eff565b909155506040805160208101959095526001600160a01b039093169284019290925215156060830152608082015260a0016040516020818303038152906040528051906020012060405160200161044992919061190160f01b81526002810192909252602282015260420190565b60408051601f19818403018152919052805160209091012090506000805b6001548110156105a057600060018487878581811061048857610488610f26565b61049e9260206060909202019081019150610f3c565b8888868181106104b0576104b0610f26565b905060600201602001358989878181106104cc576104cc610f26565b905060600201604001356040516000815260200160405260405161050c949392919093845260ff9290921660208401526040830152606082015260800190565b6020604051602081039080840390855afa15801561052e573d6000803e3d6000fd5b505060408051601f1901516001600160a01b03811660009081526003602052919091205490925060ff16159050806105785750806001600160a01b0316836001600160a01b031610155b156105965760405163274cf40160e01b815260040160405180910390fd5b9150600101610467565b50856001600160a01b03167ffcaa24b1276bfa7dbf77797c0a984b9df924acbeaabd48cd2f1b0eca379b78fa866040516105de911515815260200190565b60405180910390a2505050506001600160a01b03919091166000908152600360205260409020805460ff1916911515919091179055565b600080547f0000000000000000000000000000000000000000000000000000000000000000907f85bf243ffaa9e85f5c47a8959fc5b10066a057617ae8358d7b990cd2a86e7814908690848061066a83610eff565b909155506040805160208101949094528301919091526060820152608001604051602081830303815290604052805190602001206040516020016106c592919061190160f01b81526002810192909252602282015260420190565b60408051601f19818403018152919052805160209091012090506000805b60015481101561081c57600060018487878581811061070457610704610f26565b61071a9260206060909202019081019150610f3c565b88888681811061072c5761072c610f26565b9050606002016020013589898781811061074857610748610f26565b9050606002016040013560405160008152602001604052604051610788949392919093845260ff9290921660208401526040830152606082015260800190565b6020604051602081039080840390855afa1580156107aa573d6000803e3d6000fd5b505060408051601f1901516001600160a01b03811660009081526003602052919091205490925060ff16159050806107f45750806001600160a01b0316836001600160a01b031610155b156108125760405163274cf40160e01b815260040160405180910390fd5b91506001016106e3565b506040518581527ff18f88786aae85a652aadb99a82462616489a33370c9bcc7b245906812ef7cd19060200160405180910390a150505060019190915550565b60007f2d38a1f0ad75969000ea6dcd51396cdc874f11e8680ec292ed492eefca949dec8787878760008081548092919061089590610eff565b919050556040516020016108ae96959493929190610f5f565b60408051601f198184030181529082905280516020918201207f19457468657265756d205369676e6564204d6573736167653a0a33320000000091830191909152603c820152605c0160408051601f19818403018152919052805160209091012090506000805b600154811015610a4e57600060018487878581811061093657610936610f26565b61094c9260206060909202019081019150610f3c565b88888681811061095e5761095e610f26565b9050606002016020013589898781811061097a5761097a610f26565b90506060020160400135604051600081526020016040526040516109ba949392919093845260ff9290921660208401526040830152606082015260800190565b6020604051602081039080840390855afa1580156109dc573d6000803e3d6000fd5b505060408051601f1901516001600160a01b03811660009081526003602052919091205490925060ff1615905080610a265750806001600160a01b0316836001600160a01b031610155b15610a445760405163274cf40160e01b815260040160405180910390fd5b9150600101610915565b507fcaf938de11c367272220bfd1d2baa99ca46665e7bc4d85f00adb51b90fe1fa9f88888888604051610a849493929190610f9a565b60405180910390a16000886001600160a01b0316888888604051610aa9929190610fe2565b60006040518083038185875af1925050503d8060008114610ae6576040519150601f19603f3d011682016040523d82523d6000602084013e610aeb565b606091505b5050905080610b0d57604051632b3f6d1160e21b815260040160405180910390fd5b505050505050505050565b60606004805480602002602001604051908101604052809291908181526020018280548015610b7057602002820191906000526020600020905b81546001600160a01b03168152600190910190602001808311610b52575b5050505050905090565b60008054604051610b979188918891889188918891602001610f5f565b60405160208183030381529060405280519060200120905095945050505050565b600060208083528351808285015260005b81811015610be557858101830151858201604001528201610bc9565b506000604082860101526040601f19601f8301168501019250505092915050565b80356001600160a01b0381168114610c1d57600080fd5b919050565b60008083601f840112610c3457600080fd5b50813567ffffffffffffffff811115610c4c57600080fd5b602083019150836020606083028501011115610c6757600080fd5b9250929050565b60008060008060608587031215610c8457600080fd5b610c8d85610c06565b935060208501358015158114610ca257600080fd5b9250604085013567ffffffffffffffff811115610cbe57600080fd5b610cca87828801610c22565b95989497509550505050565b600080600060408486031215610ceb57600080fd5b83359250602084013567ffffffffffffffff811115610d0957600080fd5b610d1586828701610c22565b9497909650939450505050565b60008083601f840112610d3457600080fd5b50813567ffffffffffffffff811115610d4c57600080fd5b602083019150836020828501011115610c6757600080fd5b60008060008060008060808789031215610d7d57600080fd5b610d8687610c06565b955060208701359450604087013567ffffffffffffffff80821115610daa57600080fd5b610db68a838b01610d22565b90965094506060890135915080821115610dcf57600080fd5b50610ddc89828a01610c22565b979a9699509497509295939492505050565b600060208284031215610e0057600080fd5b610e0982610c06565b9392505050565b6020808252825182820181905260009190848201906040850190845b81811015610e515783516001600160a01b031683529284019291840191600101610e2c565b50909695505050505050565b600080600080600060808688031215610e7557600080fd5b85359450610e8560208701610c06565b935060408601359250606086013567ffffffffffffffff811115610ea857600080fd5b610eb488828901610d22565b969995985093965092949392505050565b600181811c90821680610ed957607f821691505b602082108103610ef957634e487b7160e01b600052602260045260246000fd5b50919050565b600060018201610f1f57634e487b7160e01b600052601160045260246000fd5b5060010190565b634e487b7160e01b600052603260045260246000fd5b600060208284031215610f4e57600080fd5b813560ff81168114610e0957600080fd5b8681526bffffffffffffffffffffffff198660601b166020820152846034820152828460548301376054920191820152607401949350505050565b6001600160a01b0385168152602081018490526060604082018190528101829052818360808301376000818301608090810191909152601f909201601f191601019392505050565b818382376000910190815291905056fea26469706673582212202e26169ff02b9da016a12022626eec4e51965ac78fda6b60a883bdd2da2b7c4964736f6c63430008110033a264697066735822122017e7c8bf2e2db17be4257015ead34c6ef5630fc37dbe14485ed48fb5eb8781a664736f6c63430008110033",
    "linkReferences": {}
  },
  "methodIdentifiers": {
    "createSafe(string,address[],uint256)": "700f07b4",
    "getSafes(address)": "61120929",
    "getSafesCount(address)": "f627e464",
    "hasSafe(address,address)": "58142a7e",
    "isSafe(address)": "769a28ac",
    "safes(address,uint256)": "2165e073"
  },
  "id": 16
}