{
  "abi": [
    {
      "anonymous": false,
      "inputs": [
        {
          "indexed": false,
          "internalType": "address",
          "name": "creator",
          "type": "address"
        },
        {
          "indexed": false,
          "internalType": "address",
          "name": "safe",
          "type": "address"
        }
      ],
      "name": "SafeCreation",
      "type": "event"
    },
    {
      "inputs": [
        {
          "internalType": "string",
          "name": "_name",
          "type": "string"
        },
        {
          "internalType": "address[]",
          "name": "_signers",
          "type": "address[]"
        },
        {
          "internalType": "uint256",
          "name": "_quorum",
          "type": "uint256"
        }
      ],
      "name": "createSafe",
      "outputs": [
        {
          "internalType": "address",
          "name": "",
          "type": "address"
        }
      ],
      "stateMutability": "nonpayable",
      "type": "function"
    },
    {
      "inputs": [
        {
          "internalType": "address",
          "name": "creator",
          "type": "address"
        }
      ],
      "name": "getSafes",
      "outputs": [
        {
          "internalType": "address[]",
          "name": "",
          "type": "address[]"
        }
      ],
      "stateMutability": "view",
      "type": "function"
    },
    {
      "inputs": [
        {
          "internalType": "address",
          "name": "creator",
          "type": "address"
        }
      ],
      "name": "getSafesCount",
      "outputs": [
        {
          "internalType": "uint256",
          "name": "",
          "type": "uint256"
        }
      ],
      "stateMutability": "view",
      "type": "function"
    },
    {
      "inputs": [
        {
          "internalType": "address",
          "name": "",
          "type": "address"
        }
      ],
      "name": "isSafe",
      "outputs": [
        {
          "internalType": "bool",
          "name": "",
          "type": "bool"
        }
      ],
      "stateMutability": "view",
      "type": "function"
    },
    {
      "inputs": [
        {
          "internalType": "address",
          "name": "",
          "type": "address"
        },
        {
          "internalType": "uint256",
          "name": "",
          "type": "uint256"
        }
      ],
      "name": "safes",
      "outputs": [
        {
          "internalType": "address",
          "name": "",
          "type": "address"
        }
      ],
      "stateMutability": "view",
      "type": "function"
    }
  ],
  "bytecode": {
    "object": "0x608060405234801561001057600080fd5b50611e31806100206000396000f3fe60806040523480156200001157600080fd5b50600436106200005e5760003560e01c80632165e0731462000063578063611209291462000097578063700f07b414620000bd578063769a28ac14620000d4578063f627e464146200010b575b600080fd5b6200007a62000074366004620002f6565b62000146565b6040516001600160a01b0390911681526020015b60405180910390f35b620000ae620000a836600462000323565b6200017f565b6040516200008e91906200038e565b6200007a620000ce3660046200047f565b620001f5565b620000fa620000e536600462000323565b60016020526000908152604090205460ff1681565b60405190151581526020016200008e565b620001376200011c36600462000323565b6001600160a01b031660009081526020819052604090205490565b6040519081526020016200008e565b600060205281600052604060002081815481106200016357600080fd5b6000918252602090912001546001600160a01b03169150829050565b6001600160a01b03811660009081526020818152604091829020805483518184028101840190945280845260609392830182828015620001e957602002820191906000526020600020905b81546001600160a01b03168152600190910190602001808311620001ca575b50505050509050919050565b6000808484846040516200020990620002cb565b62000217939291906200054c565b604051809103906000f08015801562000234573d6000803e3d6000fd5b50336000818152602081815260408083208054600180820183559185528385200180546001600160a01b0319166001600160a01b03881690811790915580855281845293829020805460ff1916909117905580519384529083019190915291925082917f7b0614fd48ae3b07c473a1f0c96d62b41179c80330942baf190b2022e2670b46910160405180910390a195945050505050565b61183e80620005be83390190565b80356001600160a01b0381168114620002f157600080fd5b919050565b600080604083850312156200030a57600080fd5b6200031583620002d9565b946020939093013593505050565b6000602082840312156200033657600080fd5b6200034182620002d9565b9392505050565b600081518084526020808501945080840160005b83811015620003835781516001600160a01b0316875295820195908201906001016200035c565b509495945050505050565b60208152600062000341602083018462000348565b634e487b7160e01b600052604160045260246000fd5b604051601f8201601f1916810167ffffffffffffffff81118282101715620003e557620003e5620003a3565b604052919050565b600082601f830112620003ff57600080fd5b8135602067ffffffffffffffff8211156200041e576200041e620003a3565b8160051b6200042f828201620003b9565b92835284810182019282810190878511156200044a57600080fd5b83870192505b8483101562000474576200046483620002d9565b8252918301919083019062000450565b979650505050505050565b6000806000606084860312156200049557600080fd5b833567ffffffffffffffff80821115620004ae57600080fd5b818601915086601f830112620004c357600080fd5b8135602082821115620004da57620004da620003a3565b620004ee601f8301601f19168201620003b9565b82815289828487010111156200050357600080fd5b828286018383013760009281018201929092529095508601359150808211156200052c57600080fd5b506200053b86828701620003ed565b925050604084013590509250925092565b606081526000845180606084015260005b818110156200057c57602081880181015160808684010152016200055d565b50600060808285010152601f19601f820116830190506080838203016020840152620005ac608082018662000348565b91505082604083015294935050505056fe60a060405260016000556040516200183e3803806200183e8339810160408190526200002b91620002bb565b60005b82518110156200008e57600160036000858481518110620000535762000053620003a0565b6020908102919091018101516001600160a01b03168252810191909152604001600020805460ff19169115159190911790556001016200002e565b5060018190558151620000a990600490602085019062000152565b50825160208085019190912060408051808201825260018152603160f81b9084015280517f8b73c3c69bb8fe3d512ecc4cf759cc79239f7b179b0ffacaa9a75d522b39400f938101939093528201527fc89efdaa54c0f20c7adf612882df0950f5a951637e0307cdcb4c672f298b8bc660608201524660808201523060a082015260c00160408051601f19818403018152919052805160209091012060805250620003b6915050565b828054828255906000526020600020908101928215620001aa579160200282015b82811115620001aa57825182546001600160a01b0319166001600160a01b0390911617825560209092019160019091019062000173565b50620001b8929150620001bc565b5090565b5b80821115620001b85760008155600101620001bd565b634e487b7160e01b600052604160045260246000fd5b604051601f8201601f191681016001600160401b0381118282101715620002145762000214620001d3565b604052919050565b600082601f8301126200022e57600080fd5b815160206001600160401b038211156200024c576200024c620001d3565b8160051b6200025d828201620001e9565b92835284810182019282810190878511156200027857600080fd5b83870192505b84831015620002b05782516001600160a01b0381168114620002a05760008081fd5b825291830191908301906200027e565b979650505050505050565b600080600060608486031215620002d157600080fd5b83516001600160401b0380821115620002e957600080fd5b818601915086601f830112620002fe57600080fd5b815181811115620003135762000313620001d3565b602062000329601f8301601f19168201620001e9565b82815289828487010111156200033e57600080fd5b60005b838110156200035e57858101830151828201840152820162000341565b5060009281018201929092528701519095509150808211156200038057600080fd5b506200038f868287016200021c565b925050604084015190509250925092565b634e487b7160e01b600052603260045260246000fd5b608051611457620003e7600039600081816102cf01528181610329015281816105a701526108cb01526114576000f3fe6080604052600436106100ec5760003560e01c80637df73e271161008a578063affed0e011610059578063affed0e014610287578063b03e98701461029d578063f698da25146102bd578063f99115fe146102f157600080fd5b80637df73e27146101fc57806383a6deb51461023c578063858d982a14610252578063a0e67e2b1461026557600080fd5b80635ab776c4116100c65780635ab776c4146101895780635c7f4e541461019e5780636157a8df146101b157806364810fe4146101e957600080fd5b80631703a018146100f85780632ae49a271461012157806337a33fc21461015557600080fd5b366100f357005b600080fd5b34801561010457600080fd5b5061010e60015481565b6040519081526020015b60405180910390f35b34801561012d57600080fd5b5061010e7fe8215553482e87e79e569510febbad79fcd0cb116418b7ad11fb14951df6821881565b34801561016157600080fd5b5061010e7f2d38a1f0ad75969000ea6dcd51396cdc874f11e8680ec292ed492eefca949dec81565b61019c610197366004610ee1565b610325565b005b61019c6101ac366004610f49565b6105a1565b3480156101bd57600080fd5b506101d16101cc36600461104e565b6107d2565b6040516001600160a01b039091168152602001610118565b61019c6101f7366004611137565b6108c7565b34801561020857600080fd5b5061022c6102173660046111c1565b60036020526000908152604090205460ff1681565b6040519015158152602001610118565b34801561024857600080fd5b5061010e60025481565b61019c610260366004611137565b610b82565b34801561027157600080fd5b5061027a610dd9565b60405161011891906111e3565b34801561029357600080fd5b5061010e60005481565b3480156102a957600080fd5b5061010e6102b8366004611230565b610e3b565b3480156102c957600080fd5b5061010e7f000000000000000000000000000000000000000000000000000000000000000081565b3480156102fd57600080fd5b5061010e7f85bf243ffaa9e85f5c47a8959fc5b10066a057617ae8358d7b990cd2a86e781481565b60007f00000000000000000000000000000000000000000000000000000000000000007fe8215553482e87e79e569510febbad79fcd0cb116418b7ad11fb14951df68218868660008081548092919061037d90611298565b909155506040805160208101959095526001600160a01b039093169284019290925215156060830152608082015260a001604051602081830303815290604052805190602001206040516020016103d59291906112bf565b60408051601f19818403018152919052805160209091012090506000805b60015481101561052c576000600184878785818110610414576104146112da565b61042a92602060609092020190810191506112f0565b88888681811061043c5761043c6112da565b90506060020160200135898987818110610458576104586112da565b9050606002016040013560405160008152602001604052604051610498949392919093845260ff9290921660208401526040830152606082015260800190565b6020604051602081039080840390855afa1580156104ba573d6000803e3d6000fd5b505060408051601f1901516001600160a01b03811660009081526003602052919091205490925060ff16159050806105045750806001600160a01b0316836001600160a01b031610155b156105225760405163274cf40160e01b815260040160405180910390fd5b91506001016103f3565b50856001600160a01b03167ffcaa24b1276bfa7dbf77797c0a984b9df924acbeaabd48cd2f1b0eca379b78fa8660405161056a911515815260200190565b60405180910390a2505050506001600160a01b03919091166000908152600360205260409020805460ff1916911515919091179055565b600080547f0000000000000000000000000000000000000000000000000000000000000000907f85bf243ffaa9e85f5c47a8959fc5b10066a057617ae8358d7b990cd2a86e781490869084806105f683611298565b9091555060408051602081019490945283019190915260608201526080016040516020818303038152906040528051906020012060405160200161063b9291906112bf565b60408051601f19818403018152919052805160209091012090506000805b60015481101561079257600060018487878581811061067a5761067a6112da565b61069092602060609092020190810191506112f0565b8888868181106106a2576106a26112da565b905060600201602001358989878181106106be576106be6112da565b90506060020160400135604051600081526020016040526040516106fe949392919093845260ff9290921660208401526040830152606082015260800190565b6020604051602081039080840390855afa158015610720573d6000803e3d6000fd5b505060408051601f1901516001600160a01b03811660009081526003602052919091205490925060ff161590508061076a5750806001600160a01b0316836001600160a01b031610155b156107885760405163274cf40160e01b815260040160405180910390fd5b9150600101610659565b506040518581527ff18f88786aae85a652aadb99a82462616489a33370c9bcc7b245906812ef7cd19060200160405180910390a150505060019190915550565b600080836040516020016107e6919061130b565b60408051601f198184030181529082905280516020918201207f19457468657265756d205369676e6564204d6573736167653a0a33320000000091830191909152603c820152605c01604051602081830303815290604052805190602001209050600060018285600001518660200151876040015160405160008152602001604052604051610891949392919093845260ff9290921660208401526040830152606082015260800190565b6020604051602081039080840390855afa1580156108b3573d6000803e3d6000fd5b5050604051601f1901519695505050505050565b60007f00000000000000000000000000000000000000000000000000000000000000007f2d38a1f0ad75969000ea6dcd51396cdc874f11e8680ec292ed492eefca949dec8888888860008081548092919061092190611298565b9190505560405160200161093a96959493929190611363565b604051602081830303815290604052805190602001206040516020016109619291906112bf565b60408051601f19818403018152919052805160209091012090506000805b600154811015610ab85760006001848787858181106109a0576109a06112da565b6109b692602060609092020190810191506112f0565b8888868181106109c8576109c86112da565b905060600201602001358989878181106109e4576109e46112da565b9050606002016040013560405160008152602001604052604051610a24949392919093845260ff9290921660208401526040830152606082015260800190565b6020604051602081039080840390855afa158015610a46573d6000803e3d6000fd5b505060408051601f1901516001600160a01b03811660009081526003602052919091205490925060ff1615905080610a905750806001600160a01b0316836001600160a01b031610155b15610aae5760405163274cf40160e01b815260040160405180910390fd5b915060010161097f565b507fcaf938de11c367272220bfd1d2baa99ca46665e7bc4d85f00adb51b90fe1fa9f88888888604051610aee94939291906113a4565b60405180910390a16000886001600160a01b0316888888604051610b139291906113d6565b60006040518083038185875af1925050503d8060008114610b50576040519150601f19603f3d011682016040523d82523d6000602084013e610b55565b606091505b5050905080610b7757604051632b3f6d1160e21b815260040160405180910390fd5b505050505050505050565b60007f2d38a1f0ad75969000ea6dcd51396cdc874f11e8680ec292ed492eefca949dec87878787600080815480929190610bbb90611298565b91905055604051602001610bd4969594939291906113e6565b60408051601f198184030181529082905280516020918201207f19457468657265756d205369676e6564204d6573736167653a0a33320000000091830191909152603c820152605c01604051602081830303815290604052805190602001209050600060018285856000818110610c4d57610c4d6112da565b610c6392602060609092020190810191506112f0565b86866000818110610c7657610c766112da565b9050606002016020013587876000818110610c9357610c936112da565b9050606002016040013560405160008152602001604052604051610cd3949392919093845260ff9290921660208401526040830152606082015260800190565b6020604051602081039080840390855afa158015610cf5573d6000803e3d6000fd5b505060408051601f1901516001600160a01b03811660009081526003602052919091205490925060ff16159050610d8f576000886001600160a01b0316888888604051610d439291906113d6565b60006040518083038185875af1925050503d8060008114610d80576040519150601f19603f3d011682016040523d82523d6000602084013e610d85565b606091505b5050905050610dcf565b60405162461bcd60e51b81526020600482015260116024820152703e3e3e2077726f6e67206164647265737360781b604482015260640160405180910390fd5b5050505050505050565b60606004805480602002602001604051908101604052809291908181526020018280548015610e3157602002820191906000526020600020905b81546001600160a01b03168152600190910190602001808311610e13575b5050505050905090565b60008054604051610e5891889188918891889188916020016113e6565b60405160208183030381529060405280519060200120905095945050505050565b80356001600160a01b0381168114610e9057600080fd5b919050565b60008083601f840112610ea757600080fd5b50813567ffffffffffffffff811115610ebf57600080fd5b602083019150836020606083028501011115610eda57600080fd5b9250929050565b60008060008060608587031215610ef757600080fd5b610f0085610e79565b935060208501358015158114610f1557600080fd5b9250604085013567ffffffffffffffff811115610f3157600080fd5b610f3d87828801610e95565b95989497509550505050565b600080600060408486031215610f5e57600080fd5b83359250602084013567ffffffffffffffff811115610f7c57600080fd5b610f8886828701610e95565b9497909650939450505050565b634e487b7160e01b600052604160045260246000fd5b604051601f8201601f1916810167ffffffffffffffff81118282101715610fd457610fd4610f95565b604052919050565b803560ff81168114610e9057600080fd5b600060608284031215610fff57600080fd5b6040516060810181811067ffffffffffffffff8211171561102257611022610f95565b60405290508061103183610fdc565b815260208301356020820152604083013560408201525092915050565b6000806080838503121561106157600080fd5b823567ffffffffffffffff8082111561107957600080fd5b818501915085601f83011261108d57600080fd5b81356020828211156110a1576110a1610f95565b6110b3601f8301601f19168201610fab565b925081835287818386010111156110c957600080fd5b818185018285013760008183850101528295506110e888828901610fed565b9450505050509250929050565b60008083601f84011261110757600080fd5b50813567ffffffffffffffff81111561111f57600080fd5b602083019150836020828501011115610eda57600080fd5b6000806000806000806080878903121561115057600080fd5b61115987610e79565b955060208701359450604087013567ffffffffffffffff8082111561117d57600080fd5b6111898a838b016110f5565b909650945060608901359150808211156111a257600080fd5b506111af89828a01610e95565b979a9699509497509295939492505050565b6000602082840312156111d357600080fd5b6111dc82610e79565b9392505050565b6020808252825182820181905260009190848201906040850190845b818110156112245783516001600160a01b0316835292840192918401916001016111ff565b50909695505050505050565b60008060008060006080868803121561124857600080fd5b8535945061125860208701610e79565b935060408601359250606086013567ffffffffffffffff81111561127b57600080fd5b611287888289016110f5565b969995985093965092949392505050565b6000600182016112b857634e487b7160e01b600052601160045260246000fd5b5060010190565b61190160f01b81526002810192909252602282015260420190565b634e487b7160e01b600052603260045260246000fd5b60006020828403121561130257600080fd5b6111dc82610fdc565b6000825160005b8181101561132c5760208186018101518583015201611312565b506000920191825250919050565b81835281816020850137506000828201602090810191909152601f909101601f19169091010190565b86815260018060a01b038616602082015284604082015260a06060820152600061139160a08301858761133a565b9050826080830152979650505050505050565b60018060a01b03851681528360208201526060604082015260006113cc60608301848661133a565b9695505050505050565b8183823760009101908152919050565b8681526bffffffffffffffffffffffff198660601b16602082015284603482015282846054830137605492019182015260740194935050505056fea2646970667358221220cd6dfb084eb95a4d6b7a82c655e32d63b5b170c88c856202c9a1a239c733182d64736f6c63430008110033a26469706673582212208721f119add42dacfd426426e47d8953fea327f96f4ddd4265a90e5cfd37f4ce64736f6c63430008110033",
    "linkReferences": {}
  },
  "methodIdentifiers": {
    "createSafe(string,address[],uint256)": "700f07b4",
    "getSafes(address)": "61120929",
    "getSafesCount(address)": "f627e464",
    "isSafe(address)": "769a28ac",
    "safes(address,uint256)": "2165e073"
  },
  "id": 1
}